:020000040800F2
:100000004808002091010008771700083D160008F5
:1000100075170008E3030008F91C00080000000041
:100020000000000000000000000000007B17000836
:100030001B04000800000000791700087D17000865
:10004000AB010008AB010008AB010008AB010008E0
:10005000AB010008AB010008AB010008AB010008D0
:10006000AB010008AB010008AB010008AB010008C0
:10007000AB010008AB010008E5030008AB01000874
:10008000AB010008AB010008AB010008AB010008A0
:10009000AB010008AB010008AB010008AB01000890
:1000A000AB010008AB010008AB010008AB01000880
:1000B000AB010008AB010008AB010008AB01000870
:1000C000AB010008AB010008AB010008AB01000860
:1000D000AB010008ED1C0008AB010008AB010008F3
:1000E000AB010008AB010008AB01000800F002F80A
:1000F00000F03FF80AA090E8000C82448344AAF183
:100100000107DA4501D100F034F8AFF2090EBAE880
:100110000F0013F0010F18BFFB1A43F0010318473B
:10012000401C0000601C0000103A24BF78C878C151
:10013000FAD8520724BF30C830C144BF04680C60ED
:10014000704700000023002400250026103A28BF35
:1001500078C1FBD8520728BF30C148BF0B60704739
:10016000632900F0F880002070471FB51FBD10B54F
:1001700010BD00F0FCF81146FFF7F7FF01F0CEFDCF
:1001800000F01AF903B4FFF7F2FF03BC00F022F904
:100190000948804709480047FEE7FEE7FEE7FEE71B
:1001A000FEE7FEE7FEE7FEE7FEE7FEE70448054957
:1001B000054A064B70470000DD170008ED000008F7
:1001C000480200204808002048040020480400207D
:1001D0000FB41CB5074B06AA7B44694600900598EE
:1001E00000F097F80020694600F0A6F81CBC5DF806
:1001F00014FB00005D0100002DE9F0410E460446AD
:10020000002020622046E168884730B3252805D0C9
:10021000D4E901219047206A401CF2E7E1682046BA
:1002200000278847050018D0A5F14100192802D8F9
:1002300020354FF400673246294620462760FFF7F5
:100240008FFF40B1012804D0F61D26F007060836BE
:10025000D8E7361DD6E72846DAE7206ABDE8F08100
:1002600070B50C460546012A05D02878800600D5D1
:10027000EA69002302E0012305E05B1C934202D2FD
:10028000E05C0028F9D1A869E618C01AA861286ABC
:10029000184428622846AFF3008004E0D5E9012124
:1002A00014F8010B9047B442F8D32846AFF300800E
:1002B00070BD4FF0000200B51346944696462039B3
:1002C00022BFA0E80C50A0E80C50B1F12001BFF40F
:1002D000F7AF090728BFA0E80C5048BF0CC05DF875
:1002E00004EB890028BF40F8042B08BF704748BFC3
:1002F00020F8022B11F0804F18BF00F8012B704737
:10030000704770477047000001694A1C0261087815
:10031000704700B58FB0CDE9013100210591054945
:100320007944CDE9031011466846FFF765FF0FB029
:1003300000BD0000E5FFFFFF0A6802F8010B0A603C
:10034000704710B5436913B1AFF3008001E0FFF7C8
:1003500087FF012010BD127800F124010A700022ED
:100360004A700122EDE711684FF0FF32E9E7754668
:1003700000F02CF8AE4605006946534620F0070011
:10038000854618B020B5FFF711FFBDE820404FF0BB
:1003900000064FF000074FF000084FF0000B21F06F
:1003A0000701AC46ACE8C009ACE8C009ACE8C0093C
:1003B000ACE8C0098D46704710B50446AFF3008025
:1003C0002046BDE81040FFF7DDBE00000048704742
:1003D000E401002001491820ABBEFEE72600020020
:1003E0007047FEE7014800F08BB80000A001002034
:1003F00030B590F840500124AC40C56B6C60046887
:1004000063604368102B036803D099600068C26082
:1004100030BD9A600068C16030BD704772B6FEE7BB
:1004200010B590F821100022022905D00421816323
:1004300080F82020012010BD01680B6823F00E0316
:100440000B6001680B6823F001030B6090F84030EB
:10045000C46B012101FA03F3636080F8211080F876
:100460002020104610BD000010B590F82110002487
:10047000022903D00421816301243DE001680A6858
:1004800022F00E020A6001680A6822F001020A6086
:100490001A4A0168914201D1012121E0174A143220
:1004A000914201D110211BE0144A2832914201D11E
:1004B000891515E0114A3C32914201D189140FE0AF
:1004C0000E4A5032914202D14FF4803108E00B4A7B
:1004D0006432914202D14FF4801101E04FF08071FB
:1004E000064A083A5160012180F82110002180F865
:1004F0002010416B01B18847204610BD0800024022
:100500002DE9F05FC16B0C6801680B68D0F840C042
:10051000042202FA0CF2494DDFF824A1494E4A4F59
:10052000DFF828B1DFF828E122422CD05A072AD57B
:100530000A68920603D40A6822F004020A6001687D
:10054000A94201D1042219E0514501D1402215E010
:10055000B14202D14FF4806210E0B94202D14FF4AF
:1005600080420BE0594502D14FF4802206E07145EC
:1005700002D14FF4800201E04FF080622F49083928
:100580004A60C16A3BE04FF0020808FA0CF818EA2A
:10059000040F4FF000094FF0010235D05FEA837875
:1005A00032D50B689B0605D40B6823F00A030B6059
:1005B00080F821200168A94201D1022219E05145A9
:1005C00001D1202215E0B14202D14FF4007210E0B7
:1005D000B94202D14FF400520BE0594502D14FF419
:1005E000003206E0714502D14FF4001201E04FF0F5
:1005F0000072124908394A6080F82090816A002907
:100600001AD0BDE8F05F0847082505FA0CF5254229
:1006100012D01B0710D50B6823F00E030B6090F867
:100620004010C36B02FA01F15960826380F8212007
:1006300080F82090016BE2E7BDE8F09F08000240DF
:100640001C000240300002404400024058000240BA
:100650006C00024030B528B308C81349142219446D
:10066000B1FBF2F18900C163104981630221417736
:100670001A6843F6F0718A43D0E900142143D0E9A7
:1006800002452C4321430469214344692143846981
:100690002143114319600021416301224277017710
:1006A000084630BD012030BDF8FFFDBF000002400C
:1006B00070B5044690F82000002501280CD00120D8
:1006C00084F8200094F821600020012E06D084F8E0
:1006D00020000225284670BD022070BD022684F845
:1006E0002160A0632068066826F0010606602046A7
:1006F000FFF77EFEE06A00282068016802D041F022
:100700000E0106E021F0040101602068016841F05B
:100710000A0101602068016841F001010160D9E728
:100720002DE9F84FDFF8B891002409F1040A0AF125
:10073000040B23460F270BF1040EC9E00125A54049
:100740002A40AA427DD1674ED1F804C0ACEB06081E
:10075000B44532D014DCBCF1030F3AD009DCBCF153
:10076000000F2AD0BCF1010F1CD0BCF1020F31D117
:100770001DE0BCF1110F17D0BCF1120F2AD119E006
:10078000B8F5881F19D006DCB8F5803F15D0B8F54C
:10079000801F1FD111E0B8F5001F0ED0B8F5041F5F
:1007A00018D10AE0CB6815E0CB681B1D12E0CB68BE
:1007B00008330FE0CB680C330CE08B682BB1012BB6
:1007C0004FF0080303D0456104E0042302E0056113
:1007D00000E00023FF2A01D8064601E000F10406EC
:1007E0004FEA840501D9A5F12005D6F8008007FA63
:1007F00005FC28EA0C0803FA05F548EA0508C6F8DE
:1008000000804D68ED0062D5374DAE6946F00106B7
:10081000AE61AD6924F0030605F001050095334D86
:1008200006EB050CDCF80850A607360F07FA06F8A9
:1008300025EA0805DFF8B880404503D14FF00008ED
:1008400017E044E0DFF8AC80404502D14FF00108EA
:100850000FE0DFF8A480404502D14FF0020808E025
:10086000DFF89880404502D14FF0030801E04FF0D7
:10087000040808FA06F848EA0508CCF808804D682C
:10088000D9F80060ED034D4601D5164300E09643CC
:100890002E604D68DAF80060AD03554601D5164369
:1008A00000E096432E604D68DBF80060ED025D4687
:1008B00001D5164300E096432E604D68DEF80060D7
:1008C000AD02754601D5164300E096432E60641CC8
:1008D0000D682A46E5407FF431AFBDE8F88F00008F
:1008E000000401400000111000100240000001400F
:1008F00000080140000C01400010014000140140BC
:1009000001488068704700000400002002488168A8
:10091000027811448160704704000020074810B538
:10092000016841F010010160032000F075F80F200C
:1009300000F006F800F024F8002010BD002002406E
:1009400070B50D4D04464FF47A712878B1FBF0F084
:100950000A490968B1FBF0F000F0ECFA48B9102C34
:1009600007D200222146501E00F036F800206C60AD
:1009700070BD012070BD00000400002010000020A8
:100980000C4808B5816941F001018161816901F07C
:1009900001010091C16941F08051C161C06900F05D
:1009A000805000900448416821F0E06141F00071FE
:1009B000416008BD0010024000000140002809DB32
:1009C00000F01F02012191404009800000F1E02069
:1009D000C0F8001170470000F0B40E4B1B680C46C5
:1009E000C3F30223C3F10705042D00D90425191D03
:1009F000072901D2002300E0DB1E012606FA05F1DB
:100A0000491E214099409E40761E16403143F0BC5D
:100A100001F073B90CED00E0064900F00702086828
:100A20004FF6FF03184040EA0220034A10430860D3
:100A3000704700000CED00E00000FA052DE9F047DA
:100A40000F46050061D0434E306800F00700B84201
:100A500009D2306820F0070038433060306800F079
:100A60000700B84251D128683B4C810712D5400796
:100A700003D5606840F4E06060602878000703D523
:100A8000606840F4605060606068A96820F0F00021
:100A9000084360602878C00728D06868012810D013
:100AA0002168022810D0890700292EDA616821F018
:100AB000030101436160FFF723FF804641F288395B
:100AC0000DE021688903EFE78901EDE7FFF718FFE3
:100AD000A0EB0801494502D90320BDE8F087606812
:100AE000696800F00C00B0EB810FEFD1306800F0C6
:100AF0000700B8420BD9306820F007003843306057
:100B0000306800F00700B84201D00120E5E72878FE
:100B1000400705D56068E96820F4E060084360603C
:100B20002878000706D56068296920F4605040EAFB
:100B3000C100606000F038F86168084AC1F3031131
:100B4000515CC8400649086006480068FFF7F8FE97
:100B50000020C2E70020024000100240481D0008AB
:100B6000100000200800002004480549006849687A
:100B7000044AC1F30221515CC840704710000020B4
:100B800000100240581D00080448054900684968E3
:100B9000044AC1F3C221515CC840704710000020D4
:100BA00000100240581D000812A185B00FC98DE841
:100BB0000F0014A0144A006804905168134801F013
:100BC0000C03042B10D0082B0ED1C1F38343C903AF
:100BD0001DF803000AD5516804AAC1F34041515CD5
:100BE0000A4A5043B0FBF1F005B07047084948434A
:100BF000FAE7000002030405060708090A0B0C0DBA
:100C00000E0F1010010200000010024000127A00C6
:100C100000093D002DE9F84F040070D02078C04D48
:100C2000C00749D06868C0F38100012807D0686810
:100C3000C0F38100022809D16868C00306D528687E
:100C4000800339D560680028E7D035E06068B0F5EA
:100C5000803F0BD010B1B0F5A02F11D0286820F440
:100C600080302860286820F4802002E0286840F462
:100C700080302860606890B1FFF742FE06460AE0C7
:100C8000286840F480202860F0E700BFFFF738FEB6
:100C9000801B642873D828688003F7D50CE0FFF721
:100CA0002FFE064605E000BFFFF72AFE801B6428E2
:100CB000F0D828688003F7D420789A4E80074FF048
:100CC00001094FF0000839D5686810F00C0F07D003
:100CD0006868C0F38100022809D16868C00306D49F
:100CE0002868800714D52069012808D110E0206900
:100CF000B0B1C6F80090FFF703FE074605E00AE131
:100D0000FFF7FEFDC01B0228C4D828688007F7D56E
:100D10002868616920F0F80040EAC10028600DE011
:100D2000C6F80080FFF7ECFD074604E0FFF7E8FD9A
:100D3000C01B022823D828688007F7D42078000732
:100D40002CD57948A169D9B1C0F80090FFF7D8FD3A
:100D5000074604E0FFF7D4FDC01B02280FD8686ADD
:100D60008007F7D571484FF4FA510068B0FBF1F0F5
:100D7000009000BF0098411E0091FAD20EE080E082
:100D8000C0F80080FFF7BCFD074604E0FFF7B8FDA0
:100D9000C01B022875D8686A8007F7D420784007FE
:100DA00060D5E8690027C00008D4E86940F08050A9
:100DB000E861E869012700F0805000905C48016814
:100DC000C90513D40168834641F480710160FFF7BF
:100DD00097FD824606E000BFFFF792FDA0EB0A00F8
:100DE00064284ED8DBF80000C005F5D5E06801287E
:100DF0000AD008B1052813D0286A20F00100286223
:100E0000286A20F0040002E0286A40F0010028620D
:100E1000E06841F2883B98B1FFF772FD82460BE033
:100E2000286A40F004002862EEE700BFFFF768FD83
:100E3000A0EB0A0159455AD8286A8007F6D50CE07C
:100E4000FFF75EFD824605E0FFF75AFDA0EB0A01C1
:100E500059454CD8286A8007F6D41FB1E86920F0BC
:100E60008050E861E06988B36968C1F381010229B3
:100E700044D00228C6F8608004D0FFF741FD044644
:100E800038E034E0FFF73CFD074604E0FFF738FDAB
:100E9000C01B02282BD828688001F7D4206AB0F53F
:100EA000803F05D16868A16820F40030084368607D
:100EB000D4E908010843696821F4741108436860A3
:100EC000C6F86090FFF71CFD044606E025E000BF71
:100ED000FFF716FD001B022809D828688001F7D506
:100EE0001BE000BFFFF70CFD001B022802D9032006
:100EF000BDE8F88F28688001F4D40EE00128F7D00F
:100F00006868226A00F48031914204D1616A00F479
:100F10007010884201D00120EAE70020E8E70000D5
:100F200000100240000042428004424210000020B3
:100F30000070004010B5401EB0F1807F01D3012049
:100F400010BD4FF0E02460610F21601700F0D5FE66
:100F50000020A06107202061002010BD70B590F82E
:100F60003C20012A26D0012480F83C40022280F84F
:100F70003D2003685A689D6822F070060A68324373
:100F80005A600D4B02689A4208D0B2F1804F05D0EA
:100F90000A4B9A4202D00A4B9A4204D1496825F082
:100FA00080031943916080F83D40002180F83C1097
:100FB000084670BD022070BD002C014000040040B6
:100FC0000008004010B5040003D094F83D0010B1B3
:100FD00007E0012010BD002084F83C00204600F00E
:100FE0001FF8022084F83D00211D206800F0F8FB66
:100FF000012084F8460084F83E0084F83F0084F81D
:10100000400084F8410084F8420084F8430084F8EA
:10101000440084F8450084F83D00002010BD000025
:1010200008B50068B0F1804F08D10548C16941F0AA
:101030000101C161C06900F00100009008BD00001D
:101040000010024000B585B000210091019102918D
:1010500003910068B0F1804F11D10A48816941F0D5
:10106000040181618069694600F004000490072052
:1010700000900220019003900348FFF751FB05B058
:1010800000BD0000001002400008014070B5044699
:1010900090F83C000D4601280AD0012084F83C005D
:1010A00042B1042A18D0082A2AD00C2A4DD139E09E
:1010B000022070BD206800F0D3FB2068816941F0F8
:1010C000080181612068816921F004018161206843
:1010D00081692A69114311E0206800F0E9FB20686A
:1010E000816941F4006181612068816921F4806136
:1010F0008161206881692A6941EA0221816124E0D5
:10110000206800F001FC2068C16941F00801C1615C
:101110002068C16921F00401C1612068C1692A69A0
:10112000114311E0206800F01BFC2068C16941F404
:101130000061C1612068C16921F48061C1612068DA
:10114000C1692A6941EA0221C161002084F83C009A
:1011500070BD10B5040003D094F83D0010B107E055
:10116000012010BD002084F83C00204600F01EF84D
:10117000022084F83D00211D206800F031FB012091
:1011800084F8460084F83E0084F83F0084F840006C
:1011900084F8410084F8420084F8430084F8440055
:1011A00084F8450084F83D00002010BD704770B5FC
:1011B000044690F83C00012812D0012584F83C50E8
:1011C000022084F83D00204600F0ECFB01004FF0C7
:1011D000000007D084F83D5084F83C00012070BD29
:1011E000022070BD2168CA6822F04002CA602168EE
:1011F000CA6822F48042CA6084F83D5084F83C00FA
:10120000002070BD70477047F8B50268044610684A
:10121000D168536910F00F0F4FF0000553D003F061
:10122000010601F4907737435FD0C20705D0CA05A5
:1012300003D5226C42F001022264420705D5DA0789
:1012400003D0226C42F002022264820705D5DA073D
:1012500003D0226C42F004022264020707D501F099
:101260002002324303D0226C42F008022264226C36
:10127000002A34D0800604D5880602D5204600F026
:1012800061FC20684069216CC0F38010090700D41C
:1012900030B3204600F035FC2068416949061BD573
:1012A000416921F040014161A06BA8B158494163F7
:1012B000A06BFFF7D9F8002811D0A06B416B01B0EB
:1012C000BDE8F040084783060FD58B060DD52046B4
:1012D000BDE8F84000F036BC2046FFF794FFF8BDAB
:1012E0002046FFF790FF2564F8BD266B2023012ED2
:1012F00052D1C60650D5CE064ED510685068009023
:10130000506940062AD5A16B086840680004000CAB
:10131000EAD0A68D8642E7D9E0858869202818D0D2
:10132000D06820F48070D0602068416921F001010C
:1013300041612068416921F04001416184F83E30FB
:1013400025632068C16821F01001C160A06BFFF720
:1013500067F8A08DE18D401A81B219E0A08DE18D72
:10136000401A81B2E08D0028BED00029BCD0D068E0
:1013700020F49070D0602068426922F0010242613E
:1013800084F83E3025632068C26822F01002C260F3
:101390002046FFF737FFF8BD05062BD50D0629D5EA
:1013A00094F83D002128F6D1A068B0F5805F01D106
:1013B0002069B0B1206A411C216221680078486030
:1013C000E08C401E0004000CE084E4D12068C16879
:1013D00021F08001C1602068C16841F04001C16016
:1013E000F8BD206A0088C0F308005060206A801CA5
:1013F0002062E5E74006F3D54806F1D5D1682046DE
:1014000021F04001D16084F83D3000F015F9F8BDBD
:10141000711A000870B5040004D094F83D0000254E
:1014200010B106E0012070BD84F83C50204600F069
:1014300023F8242084F83D002068C16821F400517D
:10144000C160204600F0DAFB2068016921F4904178
:1014500001612068416921F02A0141612068C16869
:1014600041F40051C1602564202084F83D0084F8D7
:101470003E00002070BD000070B586B00025064615
:1014800000950195029503950068224988423FD155
:101490002149886940F480408861886900F480406F
:1014A0000490886940F00400886188691B4C00F052
:1014B000040004904815009002200190032003903E
:1014C00069462046FFF72CF92015CDE9000569464D
:1014D00020460295FFF724F9124C11482060102095
:1014E000C4E901058020C4E903056561A5612046C2
:1014F000E561FFF7AFF808B1FEF790FF74630022D3
:10150000114625206662FFF767FA2520FFF756FA95
:1015100006B070BD003801400010024000080140D4
:1015200044000240A001002090F83E30202B0ED154
:1015300059B152B190F83C30012B08D0012380F80A
:101540003C300023036300F0B5BB0120704702204C
:101550007047000010B5144900680968884221D11D
:101560001249CA780A2A05D0114B08781A54401C2F
:1015700008700FE000200870022088700C481122CB
:101580000CA18130FEF724FE09497F2281310648F3
:1015900000F012F805490122BDE81040C91C0248BC
:1015A000FFF7C2BF10BD00005C010020000000205A
:1015B0001400002025630A0070B5044690F83D0031
:1015C000202830D169B362B394F83C0001282AD0B6
:1015D000012084F83C002162A284E2840025256475
:1015E000212084F83D00636B10489862636B1048BB
:1015F000D862636B0F481863606B134645632668B7
:10160000606B321DFFF754F821686FF040000860EE
:1016100084F83C502068416941F08001416100201C
:1016200070BD012070BD022070BD0000CB1A000803
:10163000F91A0008811A000870477047FEE7000099
:10164000094808B5416941F0010141614069002242
:1016500000F00100009011460E20FFF7BDF9BDE833
:1016600008400E20FFF7AAB900100240054808B54F
:10167000816941F004018161806900F004000090FB
:1016800008BD00000010024010B58EB0142107A85C
:10169000FEF70FFE00240C941C2168460D94FEF703
:1016A00008FE25484FF08041C0E900144FF6FF7155
:1016B000C0E9024104618461FFF784FC08B1FEF7D0
:1016C000ADFE1D48FFF745FD08B1FEF7A7FE072058
:1016D000CDE9070407A91848FFF769FD08B1FEF72F
:1016E0009DFE0C940CA914480D94FFF737FC08B12B
:1016F000FEF794FE6020CDE90004029400226946C2
:101700000D480494FFF7C2FC08B1FEF787FE0422DF
:1017100069460948FFF7BAFC08B1FEF77FFE0822C8
:1017200069460548FFF7B2FC08B1FEF777FE0248AC
:10173000FFF788FC0EB010BD140100200C4810B556
:101740000A4901604FF4E1314160002181600C22BF
:10175000C160C0E904128161C161FFF75BFE00282E
:1017600003D0BDE81040FEF759BE10BD003801405F
:101770005C010020FEE7FEE770477047FFF7C6B840
:1017800030B58FB028216846FEF793FD14210AA8D2
:10179000FEF78FFD02250120049000951020059092
:1017A00000244FF46010CDE9084007956846FFF724
:1017B00031FA08B172B6FEE70F20CDE90A054FF401
:1017C0008060CDE90C4002210AA80E94FFF736F99B
:1017D000002801D072B6FEE70FB030BD70470000A0
:1017E000F0B50268164B174C174D4FF080479842E2
:1017F00005D0B84203D0A04201D0A84203D122F0C4
:1018000070064A683243984205D0B84203D0A042DD
:1018100001D0A84203D122F44074CA6822434C6923
:1018200022F08002224302608A68C2620A688262F1
:10183000984201D10969016301214161F0BD0000B5
:10184000002C0140000400400008004010B58468EE
:1018500042EA032224F47F440A432243826010BDFB
:1018600030B5026A22F001020262026A43688469AA
:1018700024F073050C682C4322F002058A682A4381
:101880000A4DA8420BD122F00805CA6823F4407320
:101890002A434D6922F004021D438B692B434360A8
:1018A000846149684163026230BD0000002C014040
:1018B00030B5026A22F010020262026A436884694B
:1018C0000D6824F4E64444EA05248D6822F02002E1
:1018D00042EA05120B4DA8420ED1CD6822F08002DB
:1018E00042EA05124D6923F4406343EA85038D699A
:1018F00022F0400243EA85034360846149688163C2
:10190000026230BD002C014030B5026A22F48072C0
:101910000262036A4268C46923F4007324F0730509
:101920000C682C438D6843EA05230C4DA8420ED168
:10193000CD6823F4006343EA05234D6922F4405245
:1019400042EA05128D6923F4806342EA051242607F
:10195000C4614968C163036230BD0000002C0140CE
:1019600030B5026A22F480520262046A4268C36996
:101970000D6823F4E64343EA05238D6824F40054FC
:1019800044EA0534064DA84204D14D6922F4804250
:1019900042EA85124260C36149680164046230BD55
:1019A000002C014010B503689A6822F070044A6860
:1019B000224322F007040A6822439A604A6812F020
:1019C0000F0F30D11211082A2DD2DFE802F02C2C93
:1019D0002C2C0B2127040B69D1E902210068FFF7A9
:1019E00035FF20E00A68052A10D00268136A146ADD
:1019F00024F00104146202689469096924F0F00477
:101A000044EA01119161006803620CE0012010BDFD
:101A10000A698968006800F008F804E00A698968C2
:101A2000006800F013F8002010BD10B5036A046AC6
:101A300024F001040462846924F0F00444EA0214EE
:101A400023F00A020A438461026210BD10B5036AE2
:101A500023F0100303628369046A23F4704343EAAA
:101A6000023224F0A00343EA01118261016210BD39
:101A700010B5406A0021C185C184FFF7C4FB10BDC9
:101A800070B5446A2068406994F83D10C0F3C010F6
:101A90000025212904D118B1E584204600F049F839
:101AA0002068406994F83E10C0F38010222904D1C8
:101AB00018B1E585204600F024F8206C40F01000B5
:101AC00020642046FFF79FFB70BD10B50146406AB9
:101AD0000968096889060CD40021C18401684A6933
:101AE00022F080024A610068C16841F04001C16093
:101AF00010BDFFF7A1FD10BD10B5406AFFF79DFDB9
:101B000010BD0168CA6822F49072CA6001684A690F
:101B100022F001024A61016B012904D10168CA68FF
:101B200022F01002CA60202180F83E1000210163DB
:101B300070470168CA6822F0C002CA60202180F89C
:101B40003D10704708B590F83E10222901D00220C0
:101B500008BD82684FF480539A4201D1016921B1D6
:101B6000816A9A421BD04AB10AE00268816A5268CF
:101B7000C2F308020A80816A891C08E0026972B116
:101B80000268526802F07F020A70816A491C816211
:101B9000C18D491E0904090CC18503D019E00268F2
:101BA0005268F1E70168CA6822F02002CA60016841
:101BB000CA6822F48072CA6001684A6922F0010290
:101BC0004A61202180F83E10016B012903D0FFF704
:101BD000C1FC002008BD002101630168CA6822F031
:101BE0001002CA6001680A68D20602D50A6849680C
:101BF0000091818DFFF706FBEBE7000070B504460E
:101C000000680169E26821F44051114301612169D2
:101C1000A0680843616908432168CA6841F20C63FF
:101C20009A430243CA6020684169A26921F4407165
:101C3000114341611E492068884202D1FEF7A4FF8A
:101C400001E0FEF791FF00EBC00101EB00126068BC
:101C500064218000B2FBF0F3B3FBF1F36FF01806E0
:101C60007343B2FBF0F5B2FBF0F605EB83053223CC
:101C700003EB0515B5FBF1F5B6FBF1F605F0F00544
:101C800005EB0615B2FBF0F6B2FBF0F0B0FBF1F09D
:101C90006FF01802504306EB800003EB0010B0FB1E
:101CA000F1F0216800F00F002844886070BD00004A
:101CB0000038014081628285C285002101642222B0
:101CC00080F83E2080F83C100168CA6842F48072B7
:101CD000CA6001684A6942F001024A610068C1684D
:101CE00041F02001C1600020704700000148FFF76B
:101CF0008BBA00005C010020FEE70907090E0028EE
:101D000004DB00F1E02080F80014704700F00F00C1
:101D100000F1E02080F8141D70470000FEF7FEFD82
:101D2000FFF72EFDFFF7A2FCFFF78AFCFFF706FD89
:101D3000FFF7AAFC012202490248FFF7F5FBFEE784
:101D4000030000205C0100200000000000000000F3
:101D50000102030406070809000000000102030451
:101D6000801D000800000020140000002801000869
:101D7000941D0008140000203408000044010008ED
:101D80000000000001000000100000000000000042
:041D90000024F40037
:04000005080000ED02
:00000001FF
