:020000040800F2
:1000000010130020F9010008F3450008AD42000874
:10001000F1450008E12500082F64000800000000F9
:100020000000000000000000000000004F4A00082F
:1000300091290008000000004D4A0008514A0008BC
:10004000130200081302000813020008130200083C
:10005000130200081302000813020008130200082C
:10006000130200081302000813020008130200081C
:10007000130200081302000813020008130200080C
:1000800013020008130200081302000813020008FC
:10009000B9630008130200081302000813020008E5
:1000A00013020008130200081302000813020008DC
:1000B00013020008130200081302000813020008CC
:1000C00013020008130200081302000813020008BC
:1000D00013020008130200081302000813020008AC
:1000E00093290008130200081302000800F002F828
:1000F00000F073F80AA090E8000C82448344AAF14F
:100100000107DA4501D100F068F8AFF2090EBAE84C
:100110000F0013F0010F18BFFB1A43F0010318473B
:10012000EC7700000C7800000A444FF0000C10F847
:10013000013B13F0070408BF10F8014B1D1108BF65
:1001400010F8015B641E05D010F8016B641E01F805
:10015000016BF9D113F0080F1EBF10F8014BAD1C55
:100160000C1B09D16D1E58BF01F801CBFAD505E073
:1001700014F8016B01F8016B6D1EF9D59142D6D3CD
:10018000704700000023002400250026103A28BFF5
:1001900078C1FBD8520728BF30C148BF0B607047F9
:1001A000662907F0E182642900F08480732900F059
:1001B0009A85002070471FB501F05AF8040000200E
:1001C000002106F0C1FB401C60600020002106F009
:1001D000A5FBE0601FBD10B510BD01F00FFB11467F
:1001E000FFF7E9FF06F088FA01F060FD03B4FFF7BE
:1001F000F2FF03BC01F0B8FD0948804709480047F9
:10020000FEE7FEE7FEE7FEE7FEE7FEE7FEE7FEE7C6
:10021000FEE7FEE704480549054A064B7047000023
:10022000EF4A0008ED000008100D00201013002018
:10023000100F0020100F00200FB41CB5074B06AAAA
:100240007B4469460090059800F023FD0020694634
:1002500000F032FD1CBC5DF814FB0000750A0000C4
:1002600070B50C460546012A05D02878800600D5D1
:10027000EA69002302E0012305E05B1C934202D2FD
:10028000E05C0028F9D1A869E618C01AA861286ABC
:10029000184428622846AFF3008004E0D5E9012124
:1002A00014F8010B9047B442F8D32846AFF300800E
:1002B00070BD00002DE9F041064600241068752944
:1002C000314616A510D0AFF30080002802DA404274
:1002D00013A507E031688A0701D512A502E0490796
:1002E00004D511A5012401E0AFF3008000210A220A
:1002F00006F1240709E0B0FBF2FCB0FBF2F302FBCD
:100300001C00303078541846491C0028F3D123468D
:100310002A463046BDE8F04100F04DBA000000002A
:100320002D0000002B000000200000002DE9F04708
:100330004FF0000A89460446C0F820A02046E16834
:100340008847002876D0252806D0D4E90121904797
:10035000206A401C2062F1E7E168204600258847BA
:10036000C4F81CA006460027C4F818A02A2E09D0FD
:10037000304606F002F938B304EB8708303EC8F87F
:10038000186019E059F8041B204604EB87029161BC
:10039000E1688847012F064618D1E069002820DA75
:1003A00025F020051DE0D8F8180000EB800006EBD2
:1003B00040003038C8F818002046E16888470646F3
:1003C00006F0DBF80028EED1012F0AD02E2E08D13E
:1003D0002046E16888477F1C0646022F45F020052D
:1003E000C4DBA069002803DA404245F00105A061A2
:1003F000E80701D025F01005B6B1A6F14100192893
:1004000002D8203645F400654A463146204625602C
:100410004D46FFF7C5FE58B1012806D0ED1D25F069
:10042000070000F1080989E704E005F1040985E700
:1004300030468AE7206ABDE8F08700000FB400B5B7
:100440008DB010A9099000910B904FF0FF300A90E9
:1004500000200C90064878440690064878446A4686
:1004600007900F9909A800F0D3FE0DB05DF814FBBA
:10047000D70D0000EF0D00002DE9FF5F1D464FF086
:10048000FF3B91464FF000085F46D5E90146A96958
:1004900001987F1C8847296A824688470028F6D140
:1004A000BAF1FF3F0CD0002E24F4C06419DD6006C1
:1004B00014D5BAF12B0F09D0BAF12D0F0ED103E0EC
:1004C000584604B0BDE8F09F44F48064A9690198DF
:1004D0007F1C8847761E8246002E02DDBAF1300F5F
:1004E00003D0B9F1000F26D032E0A969761E019839
:1004F0007F1C44F400748847002E824605DDBAF163
:10050000780F06D0BAF1580F03D0B9F1000F10D010
:100510001EE0B9F1000F02D0B9F1100F18D1A9698E
:10052000761E01987F1C24F40074884782461020B0
:1005300002E0082000E00A20814609E0A96908FBE2
:100540000908761E01987F1C44F40074884782468F
:10055000002E05DD4946504600F0C9FB0028EDDAC3
:10056000E96901988847A00502D46FF00100A8E767
:10057000E00725D1600613D5600502D5C8F100005B
:1005800000E0404629680A1D2A600968220501D555
:10059000087015E0220701D5088011E008600FE01F
:1005A0002868011D29600068210502D580F80080B7
:1005B00006E0210702D5A0F8008001E0C0F8008025
:1005C00038467EE72DE9FF5F4FF000089946144654
:1005D00046469169D2E901A7DDF838B0019888470D
:1005E000054659EA0B0005D009E0A1690198761C7F
:1005F00088470546216A284688470028F5D1681CA7
:1006000003D05FEACA7005D015E04FF0FF3004B0A8
:10061000BDE8F09F2068011D2160D0F800800AE04D
:100620005FEACA7001D108F8015BA169761C0198E4
:100630007F1E88470546002F1ADD681C18D0B9F1C7
:10064000000F0DD0E81705EBD060421120F01F001D
:1006500059F822102A1A012090400142E0D107E007
:10066000BBF1000FDCD12846216A88470028D7D08B
:10067000E16901988847BBF1000F07D1002E05DD25
:100680005FEACA7002D1002188F80010A068B84261
:1006900003DDBBF1000F03D017B16FF00100B6E727
:1006A0003046B4E710B5203AC0F00B80B1E81850DE
:1006B000203AA0E81850B1E81850A0E81850BFF44C
:1006C000F5AF5FEA027C24BFB1E81850A0E81850EB
:1006D00044BF18C918C0BDE810405FEA827C24BF3F
:1006E00051F8043B40F8043B08BF7047D20728BFCD
:1006F00031F8023B48BF11F8012B28BF20F8023B1C
:1007000048BF00F8012B70474FF000020429C0F0E9
:10071000128010F0030C00F01B80CCF1040CBCF133
:10072000020F18BF00F8012BA8BF20F8022BA1EB85
:100730000C0100F00DB85FEAC17C24BF00F8012B6A
:1007400000F8012B48BF00F8012B70474FF0000262
:1007500000B5134694469646203922BFA0E80C50B7
:10076000A0E80C50B1F12001BFF4F7AF090728BF92
:10077000A0E80C5048BF0CC05DF804EB890028BF0E
:1007800040F8042B08BF704748BF20F8022B11F037
:10079000804F18BF00F8012B7047704770477047B3
:1007A00010B500F069FD006810BD10B5044600F0FA
:1007B00063FD046010BD2DE9F0470D469946924651
:1007C000044600F124080168880604D5E06921F098
:1007D0001001216000E00120A84201DD471B00E07C
:1007E0000027A1697A1902EB0900081AA061207894
:1007F000C00602D42046AFF30080002608E0D4E90A
:1008000001211AF806009047206A401C761C2062DD
:100810004E45F4DB2078C0060AD52046AFF30080B1
:1008200006E0D4E9012130209047206A401C206274
:10083000381EA7F10107F4DC07E0D4E9012118F81C
:1008400005009047206A401C2062281EA5F1010582
:10085000F3DC2046AFF300802078000602D50220AA
:10086000BDE8F0870120FBE770472DE9FF4F0C46FC
:100870001E464FF0FF378BB0D2E90001DDF86080F3
:100880000A908A46C1F30A5505B93D46002108463B
:100890004FF00000BAF1000F00F4400005DA00EB61
:1008A00080004FF4400101EA50004FEA9059B9F13D
:1008B000010F00DDB9460A9850EA4A000ED044F60E
:1008C0001050A5F2FF3545432F14B8F1000F1ED08C
:1008D0007542291E1EDDC9F100021CE0B8F1010FAE
:1008E0004FF0000001D0302103E0F24305E0215435
:1008F000401CB042FBDB30460022002121540B9902
:10090000C1F80880C1E900200FB0BDE8F08FBD1B21
:100910006D1CDEE74A4600DA694206A800F0F8FEE0
:1009200006AB93E8070003AB83E8070050460A993B
:1009300001F021FA8DE80700A0F500501F38009063
:100940000398002D0ADD42F21F014A4608440023A5
:1009500003A90390684601F0CDFC09E0A0F5005022
:100960004A461F38002303A90390684601F0ECFCB7
:100970008DE807000004000C03D04FF0FF30410861
:1009800000E01046B8F1000F03D000220092154697
:100990001EE0751E05D400F073FC303262556D1EEA
:1009A000F9D5B3460122084302D000227F1C04E09F
:1009B0002078302801D100227F1E002A099784D098
:1009C0001DE0112D07DA00F05BFC303262556D1C22
:1009D00050EA0102F5D1084302D00098C8B10EE0F8
:1009E0000021681E05E0235C625C63542254401EB3
:1009F000491C8142F7DBAB46A81B401E0990002032
:100A000004F80B000B98099AC0F80880C0E9002B85
:100A10007AE711264FF0000857E72DE9F04F884696
:100A20000446D21D22F0070191B0D1E90001CDE9C1
:100A30000A0105F0FDFC02460B98C00F01D02D20E5
:100A400007E02068810701D52B2002E0202101EA80
:100A5000C000032A099001D0072A05DB034641465E
:100A6000204600F05BFC0BE12078800601D5E069B0
:100A700000E00620B8F1650F814606D0B8F1660F98
:100A800018D0B8F1670F70D131E00020B9F1110F23
:100A9000009001DB112301E009F101030AAA01A979
:100AA0000CA8FFF7E2FEDDE90C70002609F1010554
:100AB000834647E001204B4600904FF000470AAACA
:100AC00001A90CA8FFF7D1FEDDE90DB00C995D4638
:100AD000002610B909F101000D18B9EB050003D487
:100AE000C0F1FF3609F10105A5EB09002BE0B9F1D2
:100AF000010F01DA4FF001090020B9F1110F009048
:100B0000484601DD112300E003460AAA01A90CA80A
:100B1000FFF7ABFEDDE90C704D46002683462078DA
:100B200000070AD4AB4500DA5D4601A8012D04DDBB
:100B3000411911F8011C302907D04F4502DA17F18D
:100B4000040F04DA012082460FE06D1EEEE7002F4D
:100B500002DCED1B3E4403E0781CA84200DD7D1C56
:100B6000B81B00F1010A4FF000472078000703D4BA
:100B7000AA4501DB4FF0FF3A0021B7F1004F0DF11C
:100B800043088DF8431024D002202B23002F01DAD4
:100B90007F422D230A21021EA0F1010000DC5FB17B
:100BA00097FBF1FC97FBF1F201FB1C7C17460CF163
:100BB000300C08F801CDEEE7A8F1010003702188A0
:100BC000090501D5452100E06521A0F1010800F8E3
:100BD000011C09980FA9A1EB0807FF1D00B1012016
:100BE000411901EBEA70A1693844081A401EA0615E
:100BF0002078C00602D42046AFF30080099828B1BF
:100C0000D4E901219047206A401C20622078C00668
:100C100022D52046AFF300801EE0002E04DBB34552
:100C200002DD01A8805D00E03020D4E90121904779
:100C3000206A401C2062761CAAF101005FEA000ACB
:100C40000AD100F015FBC0680168405CD4E90121BD
:100C50009047206A401C2062281EA5F10105DCDCBB
:100C600007E0D4E9012118F8010B9047206A401CE5
:100C70002062381EA7F10107F3DC2046AFF30080A5
:100C8000032011B041E6000001694A1C02610878A6
:100C9000704700B58FB0CDE90131002105910549BC
:100CA0007944CDE9031011466846FFF73FFB0FB0CA
:100CB00000BD0000E5FFFFFF0A6802F8010B0A60B3
:100CC000704710B5436913B1AFF3008001E0FFF73F
:100CD000C7FA012010BD127800F124010A70002229
:100CE0004A700122EDE711684FF0FF32E9E73A2838
:100CF00000D2303820F02002412A01D3A2F137007F
:100D0000884201D34FF0FF30704700002DE9FF4FBC
:100D100006468BB00878FF2806D0491C2D2805D040
:100D200000244FF0000908E000200CE00124F8E75F
:100D300009EB8903491C00EB43090878FF28F7D128
:100D400014B1C9F100008146107800252C46AA464E
:100D500029462D2801D02B2804D1521C2D2813D030
:100D6000002082468B461078FF280FD04FF0000CF1
:100D70000A21521CA5FB017804FB018105FB0C1123
:100D8000C5194BEB0104EEE70120EAE70021084614
:100D90004FF00000BAF1000F02D000EB80004008D5
:100DA000C0F38157012F01DD4FF0FF370E9955EA4F
:100DB000040009EB01080BD04FF0020918F5FA7F87
:100DC00016DA4FEACA70002F706008DD012007E0D4
:100DD0004FEACA70C6E900B00FB0BDE8F08F00203E
:100DE000306000F049FAC0F800901821084616E07B
:100DF000B8F5FA7F18DD002F02DAF748784401E0F1
:100E0000F6487844D0E90010C6E9001040EACA70FC
:100E1000706000F031FAC0F80090142108460FB05D
:100E2000BDE8F04F06F09DBC002108464FF00000E1
:100E3000B8F10001099002DAC7F1000200E03A4679
:100E400001DAC8F1000106A800F062FC06AB93E8E5
:100E5000070003AB83E8070044F23E005BEA0401AD
:100E60000090584604D144F21E012C465D46009184
:100E7000210C0904014306D10099240444EA1544D5
:100E80002D041039009104F07F41014306D10099EF
:100E9000240244EA15642D020839009104F07041DF
:100EA000014306D10099240144EA15742D01091F5C
:100EB000009104F04041014306D10099A40044EAA6
:100EC0009574AD00891E009104F00041084304D1DF
:100ED00000986D196441401E00904FF001033A469E
:100EE0006846B8F1000FCDE9014503A902DD01F024
:100EF00040FA01E001F013FABAF1000F04460D4682
:100F000001D084F00044002108464FF00000099908
:100F100040F2FF77484010F00C0F07D124F000405A
:100F2000284303D0C4F30A50B84212D100F0A4F908
:100F3000C0F80090C4F30A50B8420AD1A8487844D7
:100F4000D0E90010C6E9001004F0004108437060C9
:100F500042E7C6E900543FE72DE9FF4F1F464FF037
:100F6000000A4FF0FF38454691B0D7E90146CDF869
:100F70003CA000F07DF9C0680168405C1090B96940
:100F800012986D1C8847396A814688470028F6D137
:100F9000B9F1FF3F0AD0002E24F4D06411DDB9F17D
:100FA0002B0F08D0B9F12D0F0BD102E0404615B040
:100FB00013E744F48064B96912986D1C8847761E63
:100FC0008146600504A901D52D2000E02B20002ECC
:100FD00001F1010B0DF130088DF810003FDDB9F182
:100FE000690F08D0B9F1490F05D0B9F16E0F02D0E1
:100FF000B9F14E0F1CD13B4601A8009580E8500284
:10100000DDE912126FF0020006F014FCC11CCED113
:101010000EE0B96912986D1C884781461398761EB8
:1010200044F4007405600F98401C002E0F9016DDEC
:10103000B9F1300FEDD0B9F1780F02D0B9F1580FF6
:101040000DD10F9801280AD13B46CDE90054DDE9C6
:101050001212001F029606F0EBFBC11CA7D11099DB
:1010600089453ED144F0800406E01399681CAAF13A
:10107000010A44F400740860B9696D1C1298761E68
:10108000884730288146F0D02BE01099894505D15A
:10109000200603D4761E44F0800418E0484605F08C
:1010A0006CFA08B3761E0DF123018B4544F40074ED
:1010B00008D2A9F130000BF8010B200607D5AAF1E0
:1010C000010003E0200602D40AF101008246A005D7
:1010D00002D51399681C0860B96912986D1C88477D
:1010E0008146002ED1DC53E0002E51DDB9F1650FB1
:1010F00002D0B9F1450F4BD1A00549D5B9696D1C96
:101100001298761E24F440748847002E81460CDD28
:101110002B2804D0B9F12D0F07D144F48074B9699C
:1011200012986D1C8847761E8146E00501D52D2159
:1011300000E02B2108F8011BCDF8008021E0761E8D
:101140000DF13901884544F400740CD2A9F1300046
:1011500010F0FF0088F8000002D10099884509D9F5
:1011600008F1010806E0E00501D51E4801E042F261
:101170000F708246B96912986D1C88478146139892
:101180000560002E04DD484605F0F7F90028D6D1A9
:10119000F96912988847FF2053468BF8000088F8B9
:1011A000000000200A900B9004AA0CA90AA8FFF7DF
:1011B000ADFDA00502D46FF00100F8E614F0240F95
:1011C00012D0E0071CD13868DDE90A12031D3B602C
:1011D0000068C0E9001213E0346B0000266B0000C9
:1011E000EA690000F1D8FFFF0AA9684605F054F942
:1011F000E00705D13868009A011D39600068026077
:101200002846D4E6026811441378016018467047F6
:10121000D160054979445161044979441162002142
:101220001161114600F0BAB8EDFFFFFFED000000BC
:10123000426842B1016811F8013B23B1521EC0E976
:101240000012184670470121C160881E704742682D
:101250005AB1C368016843B983688B4205D0491EFF
:10126000521CC0E90012002070474FF0FF30704759
:1012700000487047CC0C002000487047AC0C0020A0
:1012800030B5B0F10A024FEA900E71F100034EEA58
:10129000817EB0EB0E0061EB91014FEA101E4EEA29
:1012A000017E10EB0E0041EB11114FEA102E4EEAB9
:1012B000016E10EB0E0041EB11214FEA104E4EEA89
:1012C000014E10EB0E0041EB1141401841F10001BD
:1012D0004FEAD00040EA41704FEAD10110EB80059F
:1012E0004FEA810444EA907444EB01046D1944EB25
:1012F0000404521BA3414FF0000348BF0A3200D53B
:1013000030BD401C41F1000130BD10B5044600F075
:101310009BFA0068005D00F0010010BD2DE9F0416E
:101320001F46044603260168072A01F4006004DB17
:1013300008B116A505E016A503E008B115A500E063
:1013400015A521F010002060A069C01EA0610FB19A
:10135000401EA0612046AFF300804FB1D4E90121C7
:1013600038469047206A401C2062C01C206206E07C
:10137000206AFAE7D4E9012115F8010B9047761E9F
:10138000F8D22046AFF30080BDE8F0814E414E0018
:101390006E616E00494E4600696E66002DE9F34F9E
:1013A0004FF0000A0C4656468DB001200C9001F11A
:1013B0000C000B9062690B9801219047051E2DD0FF
:1013C000252D2CD0216A8847C0B162690B98012174
:1013D0009047216A88470028F7D16269411E0B981F
:1013E000904700E0761CA1690D988847216A8847DC
:1013F0000028F7D1E1690D988847DBE7A1690D98CE
:101400008847A842074601D1761CD3E7E1690D98C9
:1014100088477F1C02D1BAF1000F6FD06BE162697F
:101420000B9800273D46394690472A2804D1626927
:101430000B98012190470125DFF8D08262690B9853
:1014400001219047A0F130010A290AD24745E5DC85
:1014500007EB870100EB4107303FDFD445F0100573
:10146000ECE7E90601D46FF000476C280AD04C285D
:1014700014D0682815D06A280DD074281CD07A287A
:101480001AD01DE062690B98012190476C2802D0A8
:1014900045F0040514E045F002050DE045F0200597
:1014A0000AE062690B9801219047682802D045F054
:1014B000080505E045F4006562690B980121904735
:1014C000C4E9015765283DD019DC58287AD00CDCD6
:1014D000452837D004DC252826D041289ED131E08C
:1014E00046282FD0472899D12CE05B2877D0612857
:1014F00028D063287CD0642823D15AE0F6E06F28F6
:1015000048D008DC66281DD067281BD0692821D068
:101510006E2816D127E0702845D0732868D075282A
:1015200047D078280DD14DE0A1690D98884725282E
:1015300005463FF469AFE1690D9888476D1C3FF49B
:101540006AAFD8E00D9923466A466FF0010006F0B5
:101550006DF9C5E045F0400023464FF000026060A1
:10156000A80736D43EE0E8077FF447AF2068011DA6
:1015700021600068290501D506701BE7290701D500
:10158000068017E7A90703D5F117C0E9006111E745
:1015900006600FE745F0400023464FF00802606008
:1015A000A80716D41EE040F60E0125EA010060608F
:1015B00016E045F0400023464FF00A026060A8079D
:1015C00007D40FE045F040006060A80708D5234627
:1015D00010220D996FF00100AFF3008080E007E06A
:1015E000102223460D996FF00100FEF745FF77E0CA
:1015F0004FF0000963284F46C8464B46CB4602D001
:101600005B2806D038E0E80601D40120A06001275D
:1016100032E06269D4F80CB00B98012190475E2843
:1016200007D14FF0010949466269D4F80CB00B9814
:101630009047216939B900210A4603AB43F82120BC
:10164000491C0829FADBD8B3216949B308F101081C
:1016500062690B98012190475D28F4D1B9F1000F20
:1016600009D0002003A951F82020D24341F82020BE
:10167000401C0828F7DB03AB2069002820794FEADB
:1016800040701ED05B462246CDF80080CDE9019720
:101690000D9900286FF0010020DAAFF300801FE001
:1016A000C11703AA00EBD1614B1121F01F0102EB1E
:1016B0008302411A13680120884003431360C7E77F
:1016C00019E00D99224600286FF00100009702DA18
:1016D000AFF3008004E0FEF775FF01E0AFF3008098
:1016E00000280ADA401C06D10C9820B14FF0FF30D8
:1016F0000FB0BDE8F08F5046FAE7E90701D10AF1D3
:10170000010A064400200C9054E60000CCCCCC0C1E
:101710002DE9F047814616468AB0354878440DC811
:101720008DE80D0032487844801C03AC0DC884E875
:101730000D0041F69B300844372190FBF1F290FBFD
:10174000F1F5A5F1800501FB12041B3C02D56442B2
:10175000012000E00020DFF898A080460027FA442E
:10176000AAF1BE0A0EE0E0070AD03246684607EB4F
:10177000470101230AEB810100F0E6FD8DE8070037
:1017800064107F1C002CEED1194F7F44AE3F19E04E
:10179000E80715D007EB04100DF1180A90E80E00C9
:1017A0008AE80E00C068F04201D1981908903246CC
:1017B000012306A903A800F0C7FD03AB83E80700D7
:1017C0006D10641C002DE3D14FF0010332466946D1
:1017D000B8F1000F03A802D000F08CFD01E000F08A
:1017E000B3FDC9E90001C9F808200AB0BDE8F087D7
:1017F000D461000000487047AC0C00207546FFF72C
:10180000F9FFAE4605006946534620F007008546BD
:1018100018B020B5FEF7FEFCBDE820404FF00006F2
:101820004FF000074FF000084FF0000B21F00701C8
:10183000AC46ACE8C009ACE8C009ACE8C009ACE80B
:10184000C0098D467047000010B5FFF711FD001D5F
:1018500010BD00BFF55000002DE9FF4F1F464FF0AF
:101860003C0987B04FF00042DDE9141001F1010896
:10187000DDF858A002EA405003900020059083460E
:10188000054604460490B969461E08988847AAF19F
:10189000010A0290BAF1000F3BDD02982E2815D004
:1018A0001021FFF724FA00282EDB4FF0010B0599D9
:1018B000014317D0B9F1000F0BDB4A46C11700F006
:1018C0003FFA05430C43A9F1040905E00120049007
:1018D0000BE008B145F0010501200590049820B9FE
:1018E000361D02E0049800B1361FB969089808F166
:1018F00001088847BBF1000FAAF1010A0290C9D084
:101900000999C1F80080C5E70298702808D05028CE
:1019100006D0F96908988847BBF1000F14D04FE052
:10192000002002900120BBF1000F049009D0B9699A
:10193000089808F101088847AAF10109B9F1000FD8
:1019400007DCF969089888476FF001000BB0BDE823
:10195000F08F2B2804D02D280CD14FF0FF300490AD
:10196000B969089808F101088847A9F10109B9F196
:10197000000FE6DD411CE4D00A21FFF7B8F900288A
:10198000DFDB029908F1010801EB810100EB410066
:101990000290B969089888470A21FFF7A8F9099ABF
:1019A000A9F10109B9F1000FC2F8008001DD00289A
:1019B000E7DAF969089888470499029800FB0166FC
:1019C00055EA040004D004F04041090002D006E0CA
:1019D000039898E0A40044EA9574AD00B61E04F0A4
:1019E0000041080002D16D196441761E159810F06F
:1019F000240F03D04FF00B095C4803E04FF0280997
:101A00006FF07D008246564507DAAAEB060189444D
:101A1000B9F1410F01DD4FF0410901200021A9F189
:101A2000010200F08DF9024628400B462140084390
:101A300001D0012100E00021501E029143F1FF314D
:101A400028402140084301D0012000E000200299F5
:101A5000834651EA0B014FD0002108464FF00000A9
:101A6000039900F4400039B100EB80004FF44001CD
:101A700000EBD07001EA60008015012802DD4FF014
:101A8000FF3000E013D0401C36D0029860B3BBF1A9
:101A9000000F0CD14A460120002100F051F92840E6
:101AA0002140084301D0012000E00020E0B10120E6
:101AB0004A46002100F044F9034640190A466141B4
:101AC0002D1A8C4111D3B9F1400F09DD159810F092
:101AD000240F02D0AAF1340603E0AAF1170600E0B1
:101AE000761C00254FF0004406E05B1E42F1FF32F9
:101AF00020EA030521EA0204CAF10100B04206DA35
:101B00001B49039808430190002000900EE0039ABF
:101B1000C4F3D321E80A0A43164940EA44500A4371
:101B20003146CDE90002684604F01CFD159810F01E
:101B3000240F0BD01598C00715D13868DDE90012C5
:101B4000031D3B600068C0E900120CE002A8694672
:101B500004F0A2FC1598C00705D13868029A011D4F
:101B60003960006802604046F0E6000002FCFFFFBA
:101B70000000F07F0000F03F2DE9FF4F92461D4628
:101B800085B04FF00041DDE9124BDDE914727F1E94
:101B900001EA4B50414940F0FF4940EA0108002169
:101BA00022F020004928049102D04E2828D04CE091
:101BB0003BA0012607C88DE80700A9690698641CA8
:101BC00088477F1E014606D41DF8060018B121F093
:101BD000200181420BD0E96906988847032E34D052
:101BE000082E32D06FF0010009B0BDE8F08F761CEE
:101BF000032E01D0082EE0D1601CCAF80000DCE7FB
:101C0000A9690698641C88477F1E2AD420F020000A
:101C1000412826D1A9690698641C88477F1E20D4D4
:101C200020F020004E281CD1A9690698641C884722
:101C30007F1E48F4002849F48009CAF8004001D406
:101C4000282806D0E969069888475FEACB7012D049
:101C500022E0A9690698641C88477F1E01D40028E9
:101C600003DAE96906988847BCE72928F1D1641CA2
:101C7000CAF80040E9E71BF0240F07D02868049950
:101C8000031D2B600068C0E9001805E02868021DEC
:101C90002A600068C0F800902046A5E70000F07FA9
:101CA000494E46494E4954590000000010B50446BB
:101CB000AFF300802046BDE81040FEF797BA000061
:101CC0004FF0013C50F8042B51F8043B9A4221D1CB
:101CD000A2EB0C03934313EACC1317D150F8042B57
:101CE00051F8043B9A4215D1A2EB0C03934313EA3B
:101CF000CC130BD150F8042B51F8043B9A4209D174
:101D0000A2EB0C03934313EACC13DBD04FF000009B
:101D1000704700BFD01A01BAB1FA81F101F0180181
:101D200022FA01F0CB40C1F12001DBB2C0B2C01AEF
:101D30002CFA01F3D11A914311EAC311E6D170478D
:101D4000B2F120030AD5C2F1200301FA02F120FA10
:101D500003F300FA02F041EA0301704700FA03F1CD
:101D60004FF000007047000001491820ABBEFEE7AD
:101D70002600020070475FEA400C08BF91F0000F98
:101D80004FEA8C234FEAC12243EA51514FEA1C50DB
:101D900018BF00F5F0404FEA300018BF41F0004195
:101DA0005FEA6C5C00F02980BCF1FF3F08BF40F0A7
:101DB00080407047130C06BF12044FF0100C4FF018
:101DC000000C130E04BF12020CF1080C130F04BF19
:101DD00012010CF1040C930F04BF92000CF1020CE1
:101DE000D30F04BF52000CF1010C11464FF000025A
:101DF000A0F11F00A0EB0C00704711F0004F08BFCE
:101E0000704731F000413FF4D5AF0B0C06BF090419
:101E10004FF0100C4FF0000C0B0E04BF09020CF138
:101E2000080C0B0F04BF09010CF1040C8B0F04BF4D
:101E300089000CF1020CCB0F04BF49000CF1010C1E
:101E4000CCF12003A0EB0C0022FA03F302FA0CF20F
:101E500041EA030100F10100704720F07F4C80EA65
:101E6000030023F07F47ACEB070303F57C5300F03E
:101E7000004003F1FF032DE980494FEA154B09B4F7
:101E80004FEA144325EA0B4E24EA03480FF20426D6
:101E900006EB132749083E785FEA320203FB066728
:101EA000C7F5000707FB06F64FEA54374FEAD64658
:101EB00006F1020607FB066CCCF1005C4FEA1C47FA
:101EC0002CEA074C07FB06F40CFB06F504EB154661
:101ED0004FEA961634BF00204FF000404FEAD1374A
:101EE00006FB07FC4FEA1C4C0CFB0BF7D21B03FB59
:101EF0000CF761EB07010CFB0EF7B0EB074072EB40
:101F000017420CFB08F734BFA2EB0742B2EB0742C3
:101F100061EB17414FEA0C444FEA910706FB07FCBF
:101F20004FEA1C4C0CFB0BF7B0EBC74072EB57327F
:101F300003FB0CF734BFA2EBC742B2EBC74261EB25
:101F400057310CFB0EF7B0EBC70072EB57720CFB6E
:101F500008F734BFA2EBC702B2EBC70261EB5771BF
:101F6000039F4FEA816141EA921104EBCC044FEAEE
:101F7000D1374FEA826206FB07FC42EA90124FEA31
:101F800080604FEA1C4C0CFB0BF7D21B03FB0CF7D9
:101F900061EB07010CFB0EF7B0EB074072EB174249
:101FA0000CFB08F734BFA2EB0742B2EB074261EB30
:101FB00017414FEA8C554FEA910704EB9C2406FB2E
:101FC00007FC4FEA1C4C0CFB0BF7B0EBC74072EB65
:101FD000573203FB0CF734BFA2EBC742B2EBC74248
:101FE00061EB57310CFB0EF7B0EBC70072EB577289
:101FF0000CFB08F734BFA2EBC702B2EBC70261EBE0
:10200000577115EB4C254FEA816141EA92114FEA75
:1020100082624FEAD13742EA901206FB07FC44F194
:1020200000044FEA80604FEA1C4C0CFB0BF7D21BFC
:1020300003FB0CF761EB07010CFB0EF7B0EB07405D
:1020400072EB17420CFB08F734BFA2EB0742B2EB6E
:10205000074261EB174115EB1C154FEA813141EA4C
:1020600092414FEA823242EA90424FEA80304FEA90
:102070000C7644F1000448EA03434EEA0B484FF063
:10208000000EB2EB080C71EB030724BF6246394621
:102090004EEB0E0E4FF0000B0018524149414BEB36
:1020A0000B0BB2EB080C71EB03077BF1000B24BFA9
:1020B000624639464EEB0E0E4FF0000B00185241AF
:1020C00049414BEB0B0BB2EB080C71EB03077BF1B7
:1020D000000B24BF624639464EEB0E0E51EA020752
:1020E00018BF46F0010616EB0E7655F1000254F1CA
:1020F000000103D5BDE88901BDE80088BDE889017C
:10210000BDE80048B619524141EB0101A3F10103BA
:10211000704780807F7E7D7C7B7A79787776767554
:102120007473727171706F6E6E6D6C6C6B6A6A69CC
:102130006868676666656464636362616160605F66
:102140005F5E5E5D5D5C5C5B5B5A5A5959585857DF
:102150005756565555555454535352525251515047
:1021600050504F4F4F4E4E4D4D4D4C4C4C4B4B4B9A
:102170004A4A4A49494948484847474747464646E0
:10218000454545444444444343434342424242411B
:102190004141000046EA0646A3F570534FEA164651
:1021A00046EA42564FEAD22242EA415210B54FEA7D
:1021B000D121A3F1010300F02FF820F0004000F13D
:1021C000020C00F0004701EB00501146BCF5006F17
:1021D00040EA070000D210BDBAF1000F0AD01CB5CA
:1021E00003B44FF004004FF004014FF000000FBCA7
:1021F000BDE810404FF00001BBF1010FB9BF04482A
:102200004FF0FF310348002140EA070010BD00BF36
:10221000FFFFEF7F0000F07F002B9C4630D477005B
:102220002BD01CB54FEA370703B44FF010004FF026
:102230001001BAF1000F06D0BCF1000FDCBF40F076
:10224000080040F008014FF000000FBCBDE810404E
:102250000BF1010BBBF1010F08BF5FEA170722BFAB
:1022600012F1010211F101014FF0004143F10003AD
:1022700000F0004043EA00007047F9D35708D0E768
:1022800046EA064613F1400F4FEA16461FDD13F1EA
:10229000200FDFBF16430A46002120335B42BED029
:1022A000C3F1200746EA064602FA07F74FEA164648
:1022B00046EA0706C3F1200722FA03F201FA07F7FC
:1022C00021FA03F14FF0000342EA0702A7E746EACA
:1022D000020646EA06464FEA164646EA0106BCBF33
:1022E00046EA0646360C4FF000034FF000024FF06E
:1022F000000194E72DE9804C9A46934670B491E82A
:10230000380007C831EA400C48BF34EA430C03D513
:10231000FFF7A3FDFFF780FFF0BCBDE8008C2DE9BF
:10232000804C9A46934670B491E8380007C831EA69
:10233000400C48BF34EA430C03D5FFF78EFDFFF78E
:1023400029FFF0BCBDE8008C2DE9804C9A469346ED
:1023500070B491E8380007C810F0804F08BF13F040
:10236000804F03D100F01AF8FFF756FFF0BCBDE82C
:10237000008C2DE9804C9A46934670B491E8380061
:1023800007C810F0804F08BF13F0804F03D100F052
:1023900005F8FFF7FFFEF0BCBDE8008C20F07F479A
:1023A00080EA030023F07F4C07EB0C03A3F57C537A
:1023B00000F00040A3F1FE0392F0000F00F0B380A4
:1023C00095F0000F00F077802DE901494FEA1140A8
:1023D0004FEA144621EA004800FB06FC24EA0647BF
:1023E00008FB06F607FB08F800FB07F718EB0648A2
:1023F0004CEB164C4FEA124B18EB07484FEA1546C8
:102400004CEB174022EA0B4E0BFB06FC25EA064775
:102410000EFB06F607FB0EFE0BFB07F71EEB064E48
:102420004CEB164C4FF000061EEB074E4CEB174BD7
:1024300018EB0B0840F1000018EB0E0B58EB0008EE
:1024400040F100008F1A4FF000013CBFC943661BEA
:1024500014BFB5EB040C00213CBFC943F61B4FEA87
:1024600017444EEA8E0E27EA04454FEA1C4704FB48
:1024700007622CEA074C05FB07F70CFB05F604FB8B
:102480000CFC16EB074642EB174216EB0C4642EBF0
:102490001C421BEB060658EB0202414146EA9E062F
:1024A00001D5BDE80189B619524141EB0101A3F103
:1024B0000103BDE801894FEA14454FEA114724EAB8
:1024C000054621EA074C05FB07F406FB07F70CFB62
:1024D00006F105FB0CFC11EB074144EB17444FEAF6
:1024E000124711EB0C4144EB1C4422EA074C05FB5C
:1024F00007F206FB07F70CFB06F605FB0CFC16EBD8
:10250000074642EB174216EB0C4642EB1C456A1895
:1025100054F1000148BF7047B619524141EB010127
:10252000A3F10103704795F0000F37D04FEA114235
:102530004FEA144721EA024624EA074C02FB07F15E
:1025400006FB07F70CFB06F402FB0CFC14EB07443C
:1025500041EB17414FEA154714EB0C4441EB1C418A
:1025600025EA074C02FB07F506FB07F70CFB06F60E
:1025700002FB0CFC16EB074645EB174516EB0C4629
:1025800045EB1C42121951F1000148BF7047B619C2
:10259000524141EB0101A3F1010370474FEA144599
:1025A0004FEA114724EA054621EA074C05FB07F1EB
:1025B00006FB07F70CFB06F24FF0000605FB0CFCD0
:1025C00012EB074241EB174112EB0C4251EB1C415D
:1025D00048BF7047921841EB0101A3F10103704716
:1025E000FEE7002070470020704700002DE9F04F03
:1025F00087B099487F210290FEF786F896483721E8
:102600007F300546FEF7A2F893482D212D38FEF7BE
:102610009DF89248904C0021D0F8B8022D3C6318E8
:10262000425C491CC9B283F82D207F29F7D37F2152
:10263000FEF78CF8884A2B46B73289A10298FDF73D
:10264000FDFED4E93920824208D000920246824839
:102650002B4685A12D38FDF7EFFDF5E094F8AC0091
:10266000854EDFF81882864DDFF81892492864D02D
:102670000BDC4FF0030A43287ED000274FF0020BFB
:1026800047280AD0482806D148E0502875D052285B
:1026900007D053282CD07CA131E094F8AD0030282D
:1026A00001D07DA12BE07448744948304831CDE910
:1026B00000107D4B7DA11A460298FDF7BFFE7A48B7
:1026C00094F8AE20001F0121302A06D0312A06D00E
:1026D000322A06D0332A09D106E0077006E00170DD
:1026E00004E080F800B001E080F800A0297097E0D5
:1026F00094F8AE00502807D0522804D16FA1564854
:102700002D38FDF799FD89E0534870A12D38FDF76C
:1027100093FD4FF0FF30C4F8E8007FE088F8467082
:1027200086F8467089F846706C4B5F4A6CA1029837
:10273000FDF784FE85F800B072E094F8AD005828EB
:1027400004D0592825D05A2868D144E04B48564A2D
:102750000830011FCDE900100B1F63A10298FDF79F
:102760006DFE4646D8F8080004F0F8FD81468A461A
:10277000706804F0F3FD01E058E055E00746884634
:10278000306804F0EBFD8DE883075BA1D4F8E4200A
:1027900040E03948444A0830011FCDE900100B1FC2
:1027A0005DA10298FDF74AFEB06804F0D7FD074628
:1027B0008846706804F0D2FD81468A46306804F08D
:1027C000CDFD009001A880E80206CDE9047856A16D
:1027D000D4F8E4201EE02B48334A0830011FCDE92D
:1027E00000100B1F58A10298FDF728FE4E46D9F89D
:1027F000080004F0B3FD81468A46706804F0AEFD1F
:1028000007468846306804F0A9FD8DE88307D4F8B0
:10281000E42051A110482D38FDF70EFD287878B13D
:1028200007B00020BDE8F08F53A168E7154B1E4AA2
:10283000483355A10298FDF701FE85F800A0EFE7A7
:1028400054F8E80F401C206003492D222D3903481D
:1028500002F0FCFAE4E70000A50300206404002075
:1028600025642025732000004E414B2025645F2500
:102870007320256400000000E00200209402002084
:10288000000000202C03002041434B2052202564EF
:102890005F534B495000000041434B2052202564B8
:1028A0005F524553554D45005C000020256420478C
:1028B00030257520582566205925660041434B2058
:1028C000522025645F5354415254000041434B2031
:1028D0005354502025645F53544F5000040000208F
:1028E0002564204820256400256420495820256659
:1028F000202566202566000041434B2046202564A4
:102900005F504944205820252E326620252E3466FB
:1029100020252E32660000002564204959202566B6
:10292000202566202566000041434B204620256473
:102930005F504944205920252E326620252E3466CA
:1029400020252E3266000000256420495A20256685
:10295000202566202566000041434B204620256443
:102960005F504944205A20252E326620252E346699
:1029700020252E326600000041434B205020256464
:102980005F504155534500002564204320256600D3
:10299000704710B54FF4005000F02EF84FF480400F
:1029A00000F02AF8BDE810404FF4004000F024B8D1
:1029B00072B6FEE770B500210124B0F5005F0ED0BD
:1029C000B0F5804F10D0B0F5004F07D1094D284623
:1029D000C5F81C1001F0EAFF85F8464070BD054DB2
:1029E000983D2846E961F5E7024D4C3D2846E961EE
:1029F000F0E700002C030020044910B50A680242E9
:102A000002D00860FFF7D6FF10BD0000140401409B
:102A10002DE9F84FDFF8B891002409F1040A0AF112
:102A2000040B23460F270BF1040EC9E00125A54036
:102A30002A40AA427DD1674ED1F804C0ACEB06080B
:102A4000B44532D014DCBCF1030F3AD009DCBCF140
:102A5000000F2AD0BCF1010F1CD0BCF1020F31D104
:102A60001DE0BCF1110F17D0BCF1120F2AD119E0F3
:102A7000B8F5881F19D006DCB8F5803F15D0B8F539
:102A8000801F1FD111E0B8F5001F0ED0B8F5041F4C
:102A900018D10AE0CB6815E0CB681B1D12E0CB68AB
:102AA00008330FE0CB680C330CE08B682BB1012BA3
:102AB0004FF0080303D0456104E0042302E0056100
:102AC00000E00023FF2A01D8064601E000F10406D9
:102AD0004FEA840501D9A5F12005D6F8008007FA50
:102AE00005FC28EA0C0803FA05F548EA0508C6F8CB
:102AF00000804D68ED0062D5374DAE6946F00106A5
:102B0000AE61AD6924F0030605F001050095334D73
:102B100006EB050CDCF80850A607360F07FA06F896
:102B200025EA0805DFF8B880404503D14FF00008DA
:102B300017E044E0DFF8AC80404502D14FF00108D7
:102B40000FE0DFF8A480404502D14FF0020808E012
:102B5000DFF89880404502D14FF0030801E04FF0C4
:102B6000040808FA06F848EA0508CCF808804D6819
:102B7000D9F80060ED034D4601D5164300E09643B9
:102B80002E604D68DAF80060AD03554601D5164356
:102B900000E096432E604D68DBF80060ED025D4674
:102BA00001D5164300E096432E604D68DEF80060C4
:102BB000AD02754601D5164300E096432E60641CB5
:102BC0000D682A46E5407FF431AFBDE8F88F00007C
:102BD00000040140000011100010024000000140FC
:102BE00000080140000C01400010014000140140A9
:102BF0008068084000D0012070470AB10161704729
:102C00000904FBE701488068704700008C00002041
:102C10000248816802781144816070478C0000206E
:102C2000074810B5016841F010010160032000F071
:102C300075F80F2000F006F800F024F8002010BD11
:102C40000020024070B50D4D04464FF47A7128788B
:102C5000B1FBF0F00A490968B1FBF0F001F008F8A7
:102C600048B9102C07D200222146501E00F036F839
:102C700000206C6070BD012070BD00008C00002041
:102C8000980000200C4808B5816941F0010181617C
:102C9000816901F001010091C16941F08051C16178
:102CA000C06900F0805000900448416821F0E06164
:102CB00041F00071416008BD001002400000014079
:102CC000002809DB00F01F0201219140400980002B
:102CD00000F1E020C0F8001170470000F0B40E4B86
:102CE0001B680C46C3F30223C3F10705042D00D96A
:102CF0000425191D072901D2002300E0DB1E01264F
:102D000006FA05F1491E214099409E40761E164064
:102D10003143F0BC03F0A0BB0CED00E0064900F02D
:102D2000070208684FF6FF03184040EA0220034AF2
:102D300010430860704700000CED00E00000FA0549
:102D400010B50C0607D501F0070101EB810100EB7E
:102D5000C100283005E001EB810100EBC10000F566
:102D6000B47099B232B1012202730181190C418110
:102D7000002010BD00220273C180F9E7704701EB0B
:102D8000810200EBC202D0F8E802D26B02F07BBAFB
:102D900001EB810200EBC202D0F8E802D2F87C21FC
:102DA00002F0D4BA70B504460B0601F0070000EB40
:102DB000800104EBC1014FF001024FF0000503D583
:102DC00081F82920283103E081F8695101F5B471B7
:102DD000087094F8A802012808D084F8A822206876
:102DE00002F0E8FE84F8A852002070BD022070BDF9
:102DF00070B5044601F00F006268904201D90120CD
:102E000070BD0B0601F0070000EB800104EBC1016F
:102E10004FF001024FF0000503D581F82920283139
:102E200003E081F8695101F5B4718D70087094F870
:102E3000A802012808D084F8A822206802F057FFD1
:102E400084F8A852002070BD022070BD2DE9F05F0B
:102E500004685FEA424C0B788D69B4F850C04FF0BB
:102E600000064BF68F7948F2800A48F68F7B48F2CD
:102E7000C00E4FF480672AD54FF0020808EBC30854
:102E8000C44407EB4C07E45BC4F30904A54203D335
:102E90002D1B8D6101D00BE08E61066836F8235042
:102EA00005EA090585F4005545EA0A0526F8235088
:102EB000520609D50D78036833F8252002EA0B0283
:102EC00042EA0E0223F8252084B30A8929E04FF054
:102ED000060808EBC308C44407EB4C07E45BC4F3E3
:102EE0000904A54203D32D1B8D6101D00BE08E6137
:102EF000066836F8235005EA090585F4005545EAC9
:102F00000A0526F82350520609D40B78056835F8CF
:102F1000232002EA0B0242EA0E0225F823202CB1FC
:102F20004A8949690068234603F050FA2046BDE803
:102F3000F09F2DE9F05F054600680C465FEA426CA1
:102F400016468B692278B0F850C048F68F774CF25D
:102F500080094FF6FF7B4FF4004E4FF4806A4FF02C
:102F600000017BD54FF0020808EBC208E0440AEBF1
:102F7000480C30F80C00C0F30900834211D91B1A29
:102F8000A3610FD0730407D52E6836F822303B407A
:102F900043EA090326F8223094F82420012A50D06D
:102FA0004EE1A161607810B1012813D01AE02868C1
:102FB000B0F85030184400EB0210B0F8042422F4AA
:102FC000F842A0F80424B0F8042442F40042A0F827
:102FD000042407E02868B0F85030184400EB0210D1
:102FE000A0F804146278286812B1012A11D018E000
:102FF000B0F850100844217800EB0110B0F80C1420
:1030000021F4F841A0F80C14B0F80C1441F400417C
:1030100005E0B0F850201044227800EB0210A0F830
:103020000C1421782846FFF7AAFE7004B8D5217841
:103030002A6832F82100384040EA090022F82100CD
:10304000FEE0626902446261E2690244E26123696E
:10305000226A9A4203D31846111A04E038E084F831
:1030600024100AB110462162617811B1012923D0E0
:103070002BE02968B1F850201144227801EB0211AD
:1030800001F2044148B13E280FD84208C30700D0DE
:10309000521C0BEA82220A8017E00A8822F4F842C6
:1030A0000A800A8842F40042F5E74209C30600D1CB
:1030B000521E4EEA8222EEE72968B1F850201144F0
:1030C000227801EB0211A1F8040483B22289B3E053
:1030D0004FF0060808EBC208E0440AEB480C30F851
:1030E0000C00C0F30900834211D31B1AA3610FD057
:1030F000730407D42E6836F822303B4043EA0903B4
:1031000026F8223094F82420012A50D098E0A161BA
:10311000607810B1012813D01AE02868B0F8503058
:10312000184400EB0210B0F8042422F4F842A0F88E
:103130000424B0F8042442F40042A0F8042407E078
:103140002868B0F85030184400EB0210A0F80414BE
:103150006278286812B1012A11D018E0B0F8501036
:103160000844217800EB0110B0F80C1421F4F84168
:10317000A0F80C14B0F80C1441F4004105E0B0F8CC
:1031800050201044227800EB0210A0F80C14217893
:103190002846FFF7F4FD700452D42278296831F8EC
:1031A0002200384040EA090021F8220048E0626924
:1031B00002446261E2690244E2612369226A9A423E
:1031C00003D31846111A216204E00AB110462162A5
:1031D00084F824106278296812B1012A22D029E0EB
:1031E000B1F850201144227801EB021101F20C4198
:1031F00048B13E280FD84208C30700D0521C0BEA42
:1032000082220A8016E00A8822F4F8420A800A889C
:1032100042F40042F5E74209C30600D1521E4EEACD
:103220008222EEE7B1F850201144227801EB02111E
:10323000A1F80C04628983B26169286803F0E4F89C
:1032400021782A6832F8210048F6BF73184080F0D0
:10325000300048F28003184322F821000020BDE826
:10326000F09F2DE9F04104460F0601F0070000EB46
:10327000800104EBC1014FF001064FF0000503D5BA
:1032800081F82960283103E081F8695101F5B471B2
:1032900008700A61CB704A7802B1C881022B00D154
:1032A0000D7194F8A802012809D084F8A86220685A
:1032B00002F052FB284684F8A852BDE8F0810220B3
:1032C000FBE770B50C4601F0070505EB850100EB47
:1032D000C101C1E95F230022C1F8842181F869217D
:1032E00081F8685101F5B4716207006802F054FD7D
:1032F000002070BD70B504460D4601F007006168FE
:10330000884201D9012070BD29064FF000064FF018
:10331000010207D500EB800104EBC10181F82920EF
:10332000283107E005EB850104EBC10181F86961F3
:1033300001F5B4718A70087094F8A802012807D0CA
:1033400084F8A822206802F00EFD680702D006E08B
:10335000022070BD04F52C71206802F0C6FC84F8D0
:10336000A862002070BD70B50C4601F0070505EBA2
:10337000850100EBC101C1E90F23012281F84C2036
:103380008B6400234B6481F8292001F8285F6207D1
:10339000006802F001FD002070BD1FB50446006802
:1033A00003F010F8000402D5204601F023F920684C
:1033B00003F008F840050CD5206830F8441F21F4CC
:1033C00080610180204600F01FF90021204600F0B6
:1033D00036F9206802F0F6FF400405D5206830F881
:1033E000441F21F480410180206802F0EBFF80043B
:1033F00005D5206830F8441F21F400510180206871
:1034000002F0E0FFC00414D5206830F8401F21F01E
:1034100004010180206830F8401F21F0080101807C
:10342000204600F004F9206830F8441F21F4805150
:103430000180206802F0C6FF00053ED5226800200A
:10344000694632F8203021F81030401CC0B20828FC
:10345000F7D332F8400F40F001001080206830F8B8
:10346000402F22F0010202802068B0F8442052056B
:10347000FBD530F8442F22F48062028000202368BC
:1034800031F8102023F82020401CC0B20828F6D3C1
:10349000206830F8401F41F008010180206830F8B2
:1034A000441F21F400610180206830F8401F41F082
:1034B00004010180204600F0F7F8206802F082FF46
:1034C000800508D5206830F8441F21F40071018080
:1034D000204600F0B0F8206802F074FFC00505D562
:1034E000206830F8441F21F4807101801FBD000066
:1034F0002DE9F04186B0040004D094F8A90200251B
:1035000020B108E0012006B0BDE8F08184F8A8529F
:10351000204600F05BF8032084F8A902206802F03E
:10352000DDFB04F11001142288466846FDF7BAF865
:1035300094E80F0002F03CFB0226D0BB002120687B
:1035400002F05AFF002001270FE000BF00EB8001CE
:1035500004EBC10181F8297001F8280FC881CD70F2
:103560000D614D61401CC0B28D6161688142EDD832
:10357000002011E000EB800104EBC10181F86951EA
:1035800081F8680181F86B51C1F87851C1F87C511C
:10359000401CC0B2C1F8805161688142EAD814224F
:1035A00041466846FDF77EF894E80F0002F08DFB77
:1035B00010B184F8A962A5E784F8245084F8A972B0
:1035C000206802F080FB00209DE7000008B500683D
:1035D0000B49884212D10B48C16941F40001C16115
:1035E000C069002200F40000009011461420FFF78B
:1035F00075FBBDE808401420FFF762BB08BD000062
:10360000005C00400010024070B50446806801254F
:10361000022801D0FFF7CCF92946D4F8E80201F0DE
:1036200072FFD4F8E802BDE8704001F02EBFD0F878
:10363000E80201F052BFD0F8E80201F058BF10B51F
:10364000044690F8A80201280BD0012084F8A802B3
:1036500084F82410206802F0D1FE002084F8A8022B
:1036600010BD022010BDD0F8E82200F52C711046E4
:1036700001F055BF10B5044690F8A802012810D0FB
:10368000012084F8A802206802F08CFE0121204667
:10369000FFF774FB206802F014FB002084F8A802F6
:1036A00010BD022010BD000010B50446D0F8E8029D
:1036B00001F074FFA069002804D00348016841F0BC
:1036C0000601016010BD000010ED00E02DE9F84397
:1036D00005460078354CC00754D0E0690026C0008C
:1036E00008D4E06940F08050E061E069012600F014
:1036F000805000902E480168C90512D401688046A8
:1037000041F480710160FFF77DFA074605E000BFD4
:10371000FFF778FAC01B642823D8D8F80000C0054A
:10372000F6D5206A10F4407021D0A98801F44071C8
:1037300081421CD0206A1F49012220F440700A6097
:1037400000220A602062C00711D0FFF75BFA07462B
:1037500041F2883808E000BFFFF754FAC11B414529
:1037600002D90320BDE8F883206A8007F4D5206AD7
:10377000696820F44070084320621EB1E06920F0BF
:103780008050E0612878800705D56068A96820F43A
:103790004040084360602878C00605D56068E96845
:1037A00020F48000084360600020DBE70010024046
:1037B00000700040400442422DE9F0470F460500EA
:1037C00061D0434E306800F00700B84209D230683B
:1037D00020F0070038433060306800F00700B8423E
:1037E00051D128683B4C810712D5400703D560684A
:1037F00040F4E06060602878000703D5606840F41A
:10380000605060606068A96820F0F0000843606064
:103810002878C00728D06868012810D021680228BD
:1038200010D0890700292EDA616821F003010143D5
:103830006160FFF7E7F9804641F288390DE02168C1
:103840008903EFE78901EDE7FFF7DCF9A0EB080159
:10385000494502D90320BDE8F0876068696800F037
:103860000C00B0EB810FEFD1306800F00700B842D8
:103870000BD9306820F0070038433060306800F022
:103880000700B84201D00120E5E72878400705D5B8
:103890006068E96820F4E060084360602878000709
:1038A00006D56068296920F4605040EAC100606074
:1038B00000F018F86168084AC1F30311515CC84070
:1038C0000649086006480068FFF7BCF90020C2E717
:1038D0000020024000100240687800089800002094
:1038E0009000002012A185B00FC98DE80F0014A030
:1038F000144A006804905168134801F00C03042B2B
:1039000010D0082B0ED1C1F38343C9031DF8030067
:103910000AD5516804AAC1F34041515C0A4A504398
:10392000B0FBF1F005B0704708494843FAE70000E2
:1039300002030405060708090A0B0C0D0E0F1010F0
:10394000010200000010024000127A0000093D0050
:103950002DE9F84F040070D02078C04DC00749D041
:103960006868C0F38100012807D06868C0F381004F
:10397000022809D16868C00306D52868800339D5B4
:1039800060680028E7D035E06068B0F5803F0BD074
:1039900010B1B0F5A02F11D0286820F48030286035
:1039A000286820F4802002E0286840F480302860F5
:1039B000606890B1FFF726F906460AE0286840F4EF
:1039C00080202860F0E700BFFFF71CF9801B642807
:1039D00073D828688003F7D50CE0FFF713F9064683
:1039E00005E000BFFFF70EF9801B6428F0D82868B7
:1039F0008003F7D420789A4E80074FF001094FF0EA
:103A0000000839D5686810F00C0F07D06868C0F35B
:103A10008100022809D16868C00306D4286880079D
:103A200014D52069012808D110E02069B0B1C6F88A
:103A30000090FFF7E7F8074605E00AE1FFF7E2F834
:103A4000C01B0228C4D828688007F7D52868616998
:103A500020F0F80040EAC10028600DE0C6F80080C0
:103A6000FFF7D0F8074604E0FFF7CCF8C01B0228A8
:103A700023D828688007F7D4207800072CD5794808
:103A8000A169D9B1C0F80090FFF7BCF8074604E07F
:103A9000FFF7B8F8C01B02280FD8686A8007F7D56F
:103AA00071484FF4FA510068B0FBF1F0009000BF8C
:103AB0000098411E0091FAD20EE080E0C0F800802C
:103AC000FFF7A0F8074604E0FFF79CF8C01B0228A8
:103AD00075D8686A8007F7D42078400760D5E86910
:103AE0000027C00008D4E86940F08050E861E86928
:103AF000012700F0805000905C480168C90513D48C
:103B00000168834641F480710160FFF77BF88246CB
:103B100006E000BFFFF776F8A0EB0A0064284ED855
:103B2000DBF80000C005F5D5E06801280AD008B12F
:103B3000052813D0286A20F001002862286A20F0A6
:103B4000040002E0286A40F001002862E06841F2C7
:103B5000883B98B1FFF756F882460BE0286A40F0A0
:103B600004002862EEE700BFFFF74CF8A0EB0A0163
:103B700059455AD8286A8007F6D50CE0FFF742F875
:103B8000824605E0FFF73EF8A0EB0A0159454CD804
:103B9000286A8007F6D41FB1E86920F08050E861F8
:103BA000E06988B36968C1F38101022944D0022821
:103BB000C6F8608004D0FFF725F8044638E034E00A
:103BC000FFF720F8074604E0FFF71CF8C01B0228A7
:103BD0002BD828688001F7D4206AB0F5803F05D142
:103BE0006868A16820F4003008436860D4E90801DF
:103BF0000843696821F4741108436860C6F860904E
:103C0000FFF700F8044606E025E000BFFEF7FAFFE4
:103C1000001B022809D828688001F7D51BE000BFE7
:103C2000FEF7F0FF001B022802D90320BDE8F88F41
:103C300028688001F4D40EE00128F7D06868226A71
:103C400000F48031914204D1616A00F4701088421E
:103C500001D00120EAE70020E8E700000010024060
:103C60000000424280044242980000200070004060
:103C700010B5401EB0F1807F01D3012010BD4FF080
:103C8000E02460610F21601702F0E6FB0020A061D4
:103C900007202061002010BD70B590F83C20012A5B
:103CA00026D0012480F83C40022280F83D200368A1
:103CB0005A689D6822F070060A6832435A600D4BBC
:103CC00002689A4208D0B2F1804F05D00A4B9A425E
:103CD00002D00A4B9A4204D1496825F08003194367
:103CE000916080F83D40002180F83C10084670BD8E
:103CF000022070BD002C014000040040000800407C
:103D000010B5040003D094F83D0010B107E0012085
:103D100010BD002084F83C00204600F01FF802206F
:103D200084F83D00211D206800F0E2FE012084F8A7
:103D3000460084F83E0084F83F0084F8400084F890
:103D4000410084F8420084F8430084F8440084F879
:103D5000450084F83D00002010BD000008B5006853
:103D60000649884208D10648C16941F00201C16193
:103D7000C06900F00200009008BD0000000400408F
:103D80000010024070B5044690F83C00012817D09E
:103D9000012584F83C50022084F83D0020688268A8
:103DA00022F0770222F47F4282600868502830D0E7
:103DB0000DDC20284DD005DC98B310283BD148E01D
:103DC000022070BD302844D0402834D139E060282A
:103DD00028D0702806D0B0F5805F2CD0B0F5005FF9
:103DE00029D10AE0CB68D1E90121206800F0C3FEA7
:103DF0002068816841F0770109E0CB68D1E90121B1
:103E0000206800F0B8FE2068816841F4804181603C
:103E100011E0CA684968206800F062FF50212068FC
:103E200007E016E0CA684968206800F06AFF602170
:103E3000206800F0AAFE84F83D50002084F83C0081
:103E400070BDCA684968206800F04AFF40212068B8
:103E5000EFE7226801461046EBE72DE9F0410D46F9
:103E6000040003D094F83D0018B108E00120BDE83B
:103E7000F081002084F83C00204600F041F8022048
:103E800084F83D002068816844F207029143816014
:103E9000211D206800F02CFE226890689169166A46
:103EA0002B68AF69034340F20330814341EA0721A5
:103EB000A868EF6908434FF6FC418843E96840EA87
:103EC0000720014328692F6A000140EA07300843B0
:103ED00069686D6926F0220646EA05152943936054
:103EE0002268906154F8460B0162012004F81F0912
:103EF000E0752076E0762077A0750020B7E7000017
:103F000000B585B000210091019102910391254BEC
:103F10000268254925489A4212D18A6942F4006212
:103F20008A618A6902F4006204928A6942F004029A
:103F30008A61896901F0040104914FF440712BE01A
:103F4000B2F1804F17D01A48824229D1C86940F097
:103F50000400C861C86900F004000490886940F05A
:103F6000080088618869694600F008000490C02054
:103F70000090104812E0CA6942F00102CA61CA69A1
:103F800002F0010204928A6942F004028A6189699E
:103F900001F004010491032100916946FEF738FD08
:103FA00005B000BD002C0140001002400008014097
:103FB00000080040000C014070B590F83E600446D7
:103FC00090F83F5090F8423090F84320022021B101
:103FD00004290ED0012E1BD114E0012E18D1012B83
:103FE00016D184F83E0084F84200012200212068A6
:103FF00020E0012D0CD1012A0AD184F83F0084F879
:10400000430014E0012D03D1012B01D1012A01D07D
:10401000012070BD84F83E0084F83F0084F842001F
:1040200084F8430001220021206800F097FD01225E
:104030000421206800F092FD2068016841F0010130
:104040000160002070BD000010B586B00021009115
:1040500001910291039100681349884221D11348CC
:10406000816941F004018161816901F004010491D9
:10407000816941F0080181618069022400F0080033
:104080000490C020CDE90004694609480394FEF776
:10409000BFFC0320CDE90004694606480394FEF7FF
:1040A000B7FC06B010BD0000000400400010024044
:1040B00000080140000C014070B5044690F83C0037
:1040C0000D4601280AD0012084F83C0042B1042AA0
:1040D00018D0082A2AD00C2A4DD139E0022070BD10
:1040E000206800F05BFD2068816941F00801816172
:1040F0002068816921F004018161206881692A6951
:10410000114311E0206800F071FD2068816941F4DD
:10411000006181612068816921F48061816120688A
:1041200081692A6941EA0221816124E0206800F066
:1041300089FD2068C16941F00801C1612068C16939
:1041400021F00401C1612068C1692A69114311E0AD
:10415000206800F0A3FD2068C16941F40061C161DD
:104160002068C16921F48061C1612068C1692A6940
:1041700041EA0221C161002084F83C0070BD10B505
:10418000040003D094F83D0010B107E0012010BDF9
:10419000002084F83C00204600F01EF8022084F83D
:1041A0003D00211D206800F0A3FC012084F846009A
:1041B00084F83E0084F83F0084F8400084F8410011
:1041C00084F8420084F8430084F8440084F84500F1
:1041D00084F83D00002010BD7047000010B5044673
:1041E000022249B104290ED0082913D094F84100C5
:1041F000012816D0012010BD94F83E000128F9D105
:1042000084F83E200FE094F83F000128F2D184F8B2
:104210003F2008E094F840000128EBD184F84020CA
:1042200001E084F841200122206800F097FC0F494A
:104230002068884203D1426C42F400424264206804
:10424000884208D0B0F1804F05D00949884202D099
:104250000849884204D1816801F00701062903D08A
:10426000016841F001010160002010BD002C0140F7
:10427000000400400008004070B50446818F806B48
:10428000FEF7B6FC0025012807D02046E56100F0C6
:104290008DFB012084F8460070BD4FF03F40E06187
:1042A000204600F083FB84F8465070BDFEE7000016
:1042B000F0B500230A24302537261F4611E000BF41
:1042C000B4EB107F02D905EB107C01E006EB107C0B
:1042D00001F813C001EB430C00015B1C8CF801706A
:1042E000DBB29342ECD3F0BD70B586B00024254814
:1042F0000094019402940394816941F0100181615A
:10430000816901F010010491816941F0200181610E
:10431000816901F020010491816941F0040181610A
:10432000816901F004010491816941F00801816112
:104330008069154E00F00800049000223C213046B0
:10434000FEF75BFC4FF46040009010480125CDE97A
:10435000010569460E48FEF75BFB3C20CDE90005F0
:104360000220CDE9024069463046FEF751FB0022AB
:1043700011462820FEF7B2FC2820FEF7A1FC06B06B
:1043800070BD000000100240000801400000211034
:104390000010014010B58CB024216846FCF7D6F916
:1043A00000241648099414490A94C0E900144FF6F1
:1043B000FF71C0E902410461446184610320CDE9D9
:1043C00000040120CDE902040494CDE905400794DE
:1043D00069460A480894FFF740FD08B172B6FEE747
:1043E000099409A905480A94FFF756FC002801D052
:1043F00072B6FEE70CB010BD002C01407401002025
:1044000010B58CB024216846FCF7A0F900241548AB
:1044100009944FF080410A94C0E900144FF6FF71EF
:10442000C0E90241046184610320CDE90004012058
:10443000CDE902040494CDE9054007946946094892
:104440000894FFF70AFD08B172B6FEE7099409A9BE
:1044500004480A94FFF720FC002801D072B6FEE75A
:104460000CB010BDBC01002010B58EB00024079424
:10447000089409940A940B941C2168460C94FCF748
:1044800065F92A48284901601D21C0E9011463210A
:10449000C0E903148461FFF733FC08B172B6FEE78C
:1044A0004FF48050079007A92048FFF76BFC08B134
:1044B00072B6FEE71D48FFF762FE08B172B6FEE76E
:1044C0000B940BA919480C94FFF7E6FB08B172B6E0
:1044D000FEE76020CDE900040294002269461348FB
:1044E0000494FFF7E9FD08B172B6FEE704226946BD
:1044F0000E48FFF7E1FD08B172B6FEE708226946F3
:104500000A48FFF7D9FD08B172B6FEE70C226946EA
:104510000648FFF7D1FD08B172B6FEE70348FFF782
:1045200093FD0EB010BD0000000400400402002006
:1045300010B58CB024216846FCF708F90024164811
:10454000099414490A94C0E900144FF6FF71C0E9B8
:104550000241046184610320CDE900040120CDE91A
:1045600002040494CDE90540079469460A4808947A
:10457000FFF773FC08B172B6FEE7099409A9064873
:104580000A94FFF789FB002801D072B6FEE70CB051
:1045900010BD0000000800404C02002010B50022B1
:1045A0000F49104800F048FE08B1FEF701FA0E4925
:1045B0000C4801F019F808B1FEF7FAF90B4909485F
:1045C00000F03CFC08B1FEF7F3F9064801F062F890
:1045D000002803D0BDE81040FEF7EAB910BD000086
:1045E0000800002064040020A00000207C000020BF
:1045F000FEE7FEE72DE9F84F044640F68F7B48F6CC
:104600000F7A4FF002094FF4806874E1B0F844105B
:1046100011F00F063AD030F8267039047DD530F805
:10462000261001EA0B0141F0800120F8261006EB6C
:10463000860004EBC00595F8740105F5B4750028F3
:104640006CD0E87802286AD02878226832F82010E6
:1046500048F68F73194048F2C003194322F820101E
:104660002878D4F800C03CF82010BCF85020490449
:104670007ED509EBC000111808EB41003CF80000A2
:104680008005800D009074D02A89D8E0C9062DD409
:10469000018801EA0A0141F400410180216804F126
:1046A0002805B1F850202B7809EBC300024408EB31
:1046B0004200085AC0F309006064E16B0844E063FB
:1046C00000212046FEF75BFB94F8240000289CD0D4
:1046D000A869002899D194F82400216840F080004E
:1046E000A1F84C00002084F8240004E1018804F5BE
:1046F000B4750A0521D5B0F850202B78062101EBBE
:10470000C3010A4408EB4201405A04F52C71C0F37E
:104710000903EB61EA88206802E0ACE068E07AE037
:1047200001F054FE2168088800EA0B0040F0800088
:1047300008802046FEF797FFDDE00904D5D5018803
:1047400001EA0B0141F0800101802068B0F850209F
:104750002B78062101EBC3010A4408EB4201405AC1
:1047600083059B0DEB6110D0696971B1EA8801E0A6
:1047700058E056E0206801F029FEE96968690844BC
:10478000686100212046FEF703FB206801880905C7
:104790002DD4B0F850100844296900F20C4051B1F2
:1047A0003E2910D84A08C90700D0521C4FF6FF71A5
:1047B00001EA82210FE0018821F4F841018001889B
:1047C00041F4004107E04A09C90600D1521E4FF4E6
:1047D000004141EA82210180206801884BF68F72F6
:1047E000114081F4405148F280021143018082E07F
:1047F000D4F800C0BCF850102A78062000EBC200A4
:10480000014408EB41003CF800008005800D009059
:104810001AD0EA8813E03A4629462046FEF716FBEE
:10482000009011E0062101EBC000111808EB4100D7
:104830003CF800008005800D009005D06A89034691
:104840006046696901F0C2FDE96900980844E861C1
:104850006969009808446861A86918B129690098D5
:10486000814204D929782046FEF792FA03E02946CE
:10487000206801F091FA38063DD506EB860004EB7E
:10488000C001206830F8262002EA0A0242F4004201
:1048900020F8262091F82B002831032804D018B1E5
:1048A000022824D1F80522D42368B3F850200D78CB
:1048B00009EBC500024408EB4200185A8A69C0F3AC
:1048C000090082420CD9121A8A610BD04A6902444B
:1048D0004A61CA691044C861206801F05DFA0AE0C3
:1048E00000208861E9B22046FEF749FA03E03A4623
:1048F0002046FEF71EFB2068B0F8441009043FF57F
:1049000085AE0020BDE8F88F2DE9F0470C46896997
:10491000451A284602F0B0FADFF88890DFF888A040
:104920004A46534602F0FCFA07460E46E06802F09B
:1049300015FD3A46334602F04FF802F01BF8804668
:10494000E0602069281A02F0B3FDA16802F0C8FDFA
:1049500002F004FD4A46534602F0FAF807460E46B6
:104960004146606802F0BCFD8046284602F0A0FD8A
:10497000216802F0B5FD414602F01CFD02F0EEFC9C
:104980003A46334602F028F801F0F4FF2561E06171
:10499000284601F073FE192802DA012084F8440049
:1049A000BDE8F087B81E85EB51B89E3F10B50446B0
:1049B000C0694FF07E51884205DC10F0FF4F1AD0DD
:1049C0002049884200D908461F4902F089FD02F0BB
:1049D00053FD02B2A06A002A0168E06A17DD60B1E7
:1049E00004280ED00828C2F164000ED00864A18EFD
:1049F0000122206B1CE00020E6E7C2F1640048635E
:104A0000F5E7C2F164008863F1E7C863EFE713D10B
:104A1000002213E04A6308E0042803D0082803D0EA
:104A20000A6402E08A6300E0CA63A18E206B002260
:104A3000BDE81040FEF7E1B8524212B20028EBD1B7
:104A4000E8E70000000080BF0000C84270477047E0
:104A500010B5064801F049FF054801F046FF05483A
:104A600001F043FFBDE81040FEF7D2B894020020E9
:104A7000E00200202C03002030B593B028216846C6
:104A8000FBF764FE14210AA8FBF760FE0024012056
:104A90000F9410941194010412948DE81300049063
:104AA0004FF4E010CDE90810022507956846FEF79F
:104AB0004FFF08B172B6FEE70F20CDE90A054FF4AB
:104AC0008060CDE90C4002210AA80E94FEF774FE26
:104AD00008B172B6FEE710200F9012940FA8FEF7EF
:104AE000F5FD002801D072B6FEE713B030BD704767
:104AF000F0B50268164B174C174D4FF0804798429F
:104B000005D0B84203D0A04201D0A84203D122F080
:104B100070064A683243984205D0B84203D0A0429A
:104B200001D0A84203D122F44074CA6822434C69E0
:104B300022F08002224302608A68C2620A688262AE
:104B4000984201D10969016301214161F0BD000072
:104B5000002C0140000400400008004010B501F0A6
:104B60001F030121046A99408C430462016A9A4040
:104B70001143016210BD10B5846842EA032224F497
:104B80007F440A432243826010BD826822F0700293
:104B90000A4342F0070181607047000030B5026AA5
:104BA00022F001020262026A4368846924F07305FC
:104BB0000C682C4322F002058A682A430A4DA84259
:104BC0000BD122F00805CA6823F440732A434D69CB
:104BD00022F004021D438B692B43436084614968C2
:104BE0004163026230BD0000002C014030B5026A12
:104BF00022F010020262026A436884690D6824F49C
:104C0000E64444EA05248D6822F0200242EA0512B7
:104C10000B4DA8420ED1CD6822F0800242EA051267
:104C20004D6923F4406343EA85038D6922F0400215
:104C300043EA85034360846149688163026230BD51
:104C4000002C014030B5026A22F480720262036ACD
:104C50004268C46923F4007324F073050C682C4384
:104C60008D6843EA05230C4DA8420ED1CD6823F48C
:104C7000006343EA05234D6922F4405242EA0512DB
:104C80008D6923F4806342EA05124260C461496879
:104C9000C163036230BD0000002C014030B5026AE0
:104CA00022F480520262046A4268C3690D6823F4E8
:104CB000E64343EA05238D6824F4005444EA0534AE
:104CC000064DA84204D14D6922F4804242EA851281
:104CD0004260C36149680164046230BD002C014038
:104CE00010B5036A046A24F001040462846924F0A4
:104CF000F00444EA021423F00A020A4384610262C7
:104D000010BD10B5036A23F0100303628369046ABF
:104D100023F4704343EA023224F0A00343EA011172
:104D20008261016210BDD0F8B802002180F89010B5
:104D30000846704770B50546D0F8B842D5F8BC2291
:104D40006178D268207890477E2322460121284648
:104D500000F092FB002070BD70B50446812100F088
:104D600089FA002501212046E56200F083FAC4F8A3
:104D70006C51D4F8B80248B1D4F8BC0204F52E74D2
:104D800080688047206800F0E2FD2560002070BD4B
:104D900010B5D0F8B842D4F88C10012909D1D0F858
:104DA000BC0223786178C268184690470020C4F896
:104DB0008C00002010BD00000A21018000487047CF
:104DC000680100202921018000487047D800002098
:104DD0002921018000487047040100202921018019
:104DE000004870473001002070B5044600260223B9
:104DF0000322812100F034FB0125022303222946EE
:104E00002046E56200F02CFB9420C4F86C5100F0C1
:104E10009FFDC4F8B80278B10546002085F89000DF
:104E2000D4F8BC02406880477E232A4601212046F0
:104E300000F022FB304670BD0126FBE7024602204F
:104E4000002902D00020C2F8BC12704710B51346EA
:104E500090F89C42D0F8B822032C0BD192F89040E5
:104E60000CB1012010BD012482F890400A46812136
:104E700000F09DFB002010BDF8B50022D0F8B8323C
:104E8000ADF800200E781546144616F0600625D0C1
:104E9000202E59D14A78921E0A2A55D2DFE802F014
:104EA00012095454545454160D058878C3F88000E0
:104EB0004DE0012203F1800137E04888000AC3F881
:104EC000840044E0012203F184012EE00122C3F8B2
:104ED0008C20CA88194600F065F838E04E7836B163
:104EE000062E0BD00A2E23D00B2E2DD128E090F8C1
:104EF0009C22032A28D10222694616E04B882226EA
:104F0000B6EB132F07D1CA881C2A00D91C22D0F86F
:104F1000BC120D6808E02126B6EB132F04D1CA8815
:104F20000E4D092A00D90922294600F055F80EE055
:104F300090F89C22032A07D1012203F18801F4E7AB
:104F400090F89C22032A04D000F021F80224204685
:104F5000F8BD8878C3F88800F9E700005C010020FC
:104F600010B5D0F8B42252689047002010BD134607
:104F700010B50A46002100F07FFA002010BD13464C
:104F800010B50A46002100F012FB002010BD10B53C
:104F90000446802100F0F0FA2046BDE810400021D0
:104FA00000F0EABA10B50323C0F85C21C0F89432CF
:104FB000C0F8602113460A46002100F05DFA002087
:104FC00010BD10B505210023C0F894121A461946E9
:104FD00000F052FA002010BD10B50223C261C0F8E3
:104FE0009432026213460A46002100F0E0FA0020E3
:104FF00010BD10B504210023C0F894121A461946BA
:1050000000F0D5FA002010BD10B50A46024903A0F1
:1050100000F0E2F8004810BD2807002043757374C3
:105020006F6D2048494420436F6E66696700000039
:1050300012200880004870472800002010B50A465A
:10504000024903A000F0C8F8004810BD280700205E
:10505000437573746F6D2048494420496E746572BE
:105060006661636500000000042008800048704706
:105070002400002010B50A46024903A000F0ACF855
:10508000004810BD2807002053544D6963726F65B6
:105090006C656374726F6E696373000010B50A46C5
:1050A000024903A000F098F8004810BD280700202E
:1050B000434E434D6963610010B51A2008800A48C9
:1050C0000168001D0468001D0068081809D0082246
:1050D0000649FFF7EDF80549042210312046FFF795
:1050E000E7F80248801E10BDE8F7FF1F3E000020D1
:1050F000F8B504460020ADF8000048880D46010AC6
:10510000082948D2DFE801F04704091747473C4522
:10511000D4F8B012207C0A6819E0207C022600280E
:10512000D4F8B40205D0C16A684688470146467083
:105130003EE0816AF8E7C0B206282CD2DFE800F032
:10514000030A1014181CD4F8B002426805E069463E
:1051500090471CE0D4F8B0028268E2B1207CF6E708
:10516000D4F8B002C268F8E7D4F8B0020269F4E7F4
:10517000D4F8B0024269F0E7D4F8B0028269ECE7F3
:10518000207C40B9D4F8B402416B68468847014698
:105190000EE0207C20B129462046FFF7F8FEF8BD3E
:1051A000D4F8B402016B684688470146072048706E
:1051B000BDF8000048B1EA8852B1824200D90246E7
:1051C000ADF800202046FFF707FFE8880028E6D169
:1051D0002046FFF70EFFF8BD70B5002300281ED053
:1051E0000446002502E06D1CEDB2641C2678002EFA
:1051F000F9D1022404EB450414801278CA545B1CD4
:105200000322CA5400245B1C06E0CA545B1CDAB2B9
:105210008C54521CD3B2401C0278002AF5D170BDC8
:1052200001004FF0000004D0012901D0022901D073
:10523000022070470120704710B580B1D0F8B43219
:1052400013B10023C0F8B43209B1C0F8B012012183
:1052500080F89C12027000F0BBF8002010BD022004
:1052600010BD10B5D0F8C002FDF7C2FDBDE810407A
:10527000FFF7D6BF10B5D0F8C002FDF793FDBDE82B
:105280001040FFF7CDBF2DE9F0411746044651B15C
:10529000D4F8B40242691AB194F89C02032851D0A0
:1052A0000220BDE8F081D4F89432002504F1140006
:1052B000022B03D0042B3AD0C3B33CE0D0E9036304
:1052C0009E4207D9F11AC1608AB239462046FFF7DB
:1052D00056FE12E08068B0FBF3F103FB110199B9AF
:1052E000984211D3D4F8981288420DD20022114668
:1052F0002046FFF744FEC4F8985200231A46194688
:10530000204600F0B9F816E0D4F8B402C16829B11B
:1053100094F89C02032801D120468847802120462A
:1053200000F02AF92046FFF74CFE04E0FFE7802159
:10533000204600F021F994F8A002012804D184F855
:10534000A05201E0204690470020AAE770B515461C
:10535000044649B1D4F8B40282691AB194F89C02A7
:10536000032830D0022070BDD4F8941204F5AA703E
:10537000032902D005291ED027E0D0E903218A4263
:105380000BD9531AC3600846834200D303469AB22E
:1053900029462046FFF7EBFD17E0D4F8B402016977
:1053A00029B194F89C02032801D120468847204661
:1053B000FFF71FFE09E000200146C4F894022046D2
:1053C00000F0DAF801E020469047002070BD0000B0
:1053D00010B519490446C1F8E802C0F8C0121748D0
:1053E0000860082048600220886000208861C86149
:1053F00008620846FEF77CF808B1FDF7D9FA0022EA
:10540000D4F8C0021823114604F53074FDF798FC57
:105410005823002280212068FDF792FC9823002267
:1054200081212068FDF78CFCD8230022012120680F
:10543000FDF786FC002010BDC0090020005C004084
:105440000A0601F07F01D0F8C00201EB810100EBF8
:10545000C10002D590F82A00704790F86A017047A1
:1054600010B51C461346D0F8C0022246FDF7F9FEDF
:10547000BDE81040FFF7D4BE10B5D0F8C002FDF76C
:1054800020FFBDE81040FFF7CBBE70B500220446F8
:1054900040231146FFF7E4FF40260125C4F864616C
:1054A0003346002280212046C4F85851FFF7D8FF28
:1054B0006662A56184F89C520020C4F89402606082
:1054C000C4F8A402D4F8B80228B1D4F8B402002178
:1054D000426820469047002070BD90F89C12042935
:1054E00003D190F89D1280F89C120020704710B5EF
:1054F00090F89C12032904D1D0F8B412C96901B103
:105500008847002010BD01740020704710B5D0F806
:10551000C002FEF794F8BDE81040FFF781BE70B5F9
:10552000044600F52A70054600F04AF80120C4F848
:105530009402B4F8AE02C4F8980294F8A80210F0ED
:105540001F010AD001290DD0022910D000F08001DE
:10555000204600F011F8002070BD2946204600F0DA
:105560009EF8F8E72946204600F0CAF9F3E72946F5
:10557000204600F01DF9EEE710B5D0F8C002FDF7A7
:10558000B9FEBDE81040FFF74BBE10B5D0F8C00221
:10559000FEF770F8BDE81040FFF742BE90F89C128D
:1055A00080F89D12042180F89C120020704710B5ED
:1055B000D0F8C002FDF7D7FEBDE81040FFF730BEBF
:1055C0000A7802704A7842708A78CB7802EB03221C
:1055D00042800A794B7902EB032282808A79C97969
:1055E00002EB0121C18070470246002011B1C2F8D0
:1055F000B41270470220704710B5D0F8B4220224CC
:105600001AB11268904700B90024204610BD00006E
:1056100070B50E461E4D897804462970012931D88F
:1056200094F89C0202280BD003280FD03146204664
:10563000FFF7ADFC29782046BDE87040FFF790BC2D
:10564000D9B10320616084F89C0209E071B16068FF
:10565000884212D0C1B22046FFF782FC29786160EF
:105660002046FFF7C9FF02280CD006E0022084F88C
:105670009C0220466160FFF773FC2046BDE8704045
:10568000FFF7B7BC31462046BDE87040FFF77FBC4E
:105690009C00002010B5FFF778FF002010BD2DE919
:1056A000F0410A78002612F0600208D0202A01D0CA
:1056B000402A70D1D0F8B422926890476DE04B78C0
:1056C000002201250A2B66D2DFE803F0405D655712
:1056D000650805652C29FFF70BFD5EE00446888808
:1056E000D8B9C888C8B94888802816D200F07F0782
:1056F00094F89C02032810D084F89E723946204604
:10570000FFF704FF2046FFF774FC1FB1022084F866
:105710009C0242E084F89C523FE020463BE0FFF7C9
:1057200077FF3AE0CB88012B35D190F89C32012BE2
:1057300004D0022B02D0032B2DD104E08260012281
:1057400000F1080116E00122011D13E090F89C22EF
:10575000012A03D0022A01D0032A1CD1CA88022AB6
:1057600019D1C560D0F8A41209B10321C160022289
:1057700000F10C01FFF730FC0FE0498801290CD142
:10578000C0F8A45211E090F89C32012B08D0022BF3
:1057900006D0032B04D0FFF7FAFB3046BDE8F081BA
:1057A00049880129F9D1C0F8A422FFF722FCF4E7C7
:1057B0002DE9F0410A46044610780027097910F0D7
:1057C00060030AD0202B01D0402B50D1D4F8B40272
:1057D00011468368204698478FE0C0F341100128A6
:1057E00006D05078D0B301282AD003283FD107E053
:1057F000D4F8B402114683682046BDE8F04118474A
:1058000094F89C02022802D0032872D10AE071B3F6
:1058100080296ED02046FFF7AFFE80212046FFF79B
:10582000ABFE6AE0508838B931B1802904D0D08805
:1058300010B92046FFF7A0FE2046FFF7DAFB5CE038
:1058400094F89C020228E2D0032852D1508898BBD9
:105850004806F1D02046FFF704FDEDE7FFE794F896
:105860009C020026022803D0032842D112E040E027
:1058700009B180293DD1080601F07F0000EB8000CE
:1058800004EB800101D5143101E001F5AA71022277
:105890000E602AE0080601F00F0000EB800004EB28
:1058A00080000AD5806920B301F07F0000EB800002
:1058B00004EB800514350BE01FE0D0F85801C0B1AF
:1058C00001F07F0000EB800004EB800505F5AA7570
:1058D00041B1802906D02046FFF7B2FD10B101206A
:1058E000286000E02E60022229462046FFF774FB64
:1058F00003E011462046FFF74AFB3846BDE8F08139
:1059000070B5054608780C4610F0600003D02028DA
:1059100001D0402816D195F89C02012803D0022816
:1059200001D003280ED1207901280BD8D5F8B40274
:10593000826828469047E188014306D12846FFF750
:1059400058FB02E02846FFF722FB002070BD70479D
:1059500000487047280900202DE9F0470C78002600
:1059600030F8243048F68F121340CA78002A7DD0D0
:10597000012A7CD0022A02D0032A7FD0012648F2D5
:105980008002134320F824300D7830F8254048F683
:105990008F731C402C43144320F825400D7B48F2A4
:1059A000C00C48F6BF744CF280074BF68F79EDB30C
:1059B00091F80080C24630F8285048F280181D4007
:1059C00045EA080520F82A50B0F8505091F80080B8
:1059D000054405EB0815B1F8088028F00108A5F882
:1059E0000084B0F8505091F80080054405EB08158C
:1059F000B1F80A8028F00108A5F808844D78002D38
:105A00000D7830F825804FEA48487DD0B8F1000F76
:105A100007DA30F8258008EA030848EA070820F882
:105A200025800F7830F827506D0600E02CE006D571
:105A300030F827501D4045EA0C0520F82750CB7858
:105A40000D78012B30F8253003EA040301D083F0F0
:105A50002003134320F825300B7830F8231001EA97
:105A60000901114320F82310304602E003E008E06A
:105A700004E0BDE8F08743F4007380E743F4C063BB
:105A80007DE743F480637AE74D782DB3B0F850504A
:105A90000F78054405EB0715CF8827F00107A5F817
:105AA00000740F7830F827506D0606D530F827506F
:105AB0001D4045EA0C0520F82750CB78012B06D075
:105AC0000B7830F82310214081F02001C9E70B78D2
:105AD00030F823102140C4E7B0F850400D7804445A
