:020000040800F2
:10000000A0100020C9010008C71C00081F1A000822
:10001000C51C000833030008733900080000000005
:10002000000000000000000000000000DF1F0008CA
:10003000A103000800000000DD1F0008E11F000808
:10004000E3010008E3010008E3010008E301000800
:10005000E3010008E3010008E3010008E3010008F0
:10006000E3010008E3010008E3010008E3010008E0
:10007000E3010008E3010008E3010008E3010008D0
:10008000E3010008E3010008E3010008E3010008C0
:10009000FD380008E3010008E3010008E30100085F
:1000A000E3010008E3010008E3010008E3010008A0
:1000B000E3010008E3010008E3010008E301000890
:1000C000E3010008E3010008E3010008E301000880
:1000D000E3010008E3010008E3010008E301000870
:1000E000E3010008E3010008E301000800F002F862
:1000F00000F05AF80AA090E8000C82448344AAF168
:100100000107DA4501D100F04FF8AFF2090EBAE865
:100110000F0013F0010F18BFFB1A43F0010318473B
:10012000A0380000C03800000A444FF0000C10F85E
:10013000013B13F0070408BF10F8014B1D1108BF65
:1001400010F8015B641E05D010F8016B641E01F805
:10015000016BF9D113F0080F1EBF10F8014BAD1C55
:100160000C1B09D16D1E58BF01F801CBFAD505E073
:1001700014F8016B01F8016B6D1EF9D59142D6D3CD
:10018000704700000023002400250026103A28BFF5
:1001900078C1FBD8520728BF30C148BF0B607047F9
:1001A0001FB51FBD10B510BD00F08EF81146FFF74A
:1001B000F7FF03F0EFFB00F0ACF803B4FFF7F2FF3A
:1001C00003BC00F0AFF80000094880470948004729
:1001D000FEE7FEE7FEE7FEE7FEE7FEE7FEE7FEE7F7
:1001E000FEE7FEE704480549054A064B7047000054
:1001F0005B200008ED000008A00A0020A0100020ED
:10020000A00C0020A00C002010B5203AC0F00B80FC
:10021000B1E81850203AA0E81850B1E81850A0E80A
:100220001850BFF4F5AF5FEA027C24BFB1E8185064
:10023000A0E8185044BF18C918C0BDE810405FEAD4
:10024000827C24BF51F8043B40F8043B08BF704750
:10025000D20728BF31F8023B48BF11F8012B28BF55
:1002600020F8023B48BF00F8012B70474FF0000216
:1002700000B5134694469646203922BFA0E80C509C
:10028000A0E80C50B1F12001BFF4F7AF090728BF77
:10029000A0E80C5048BF0CC05DF804EB890028BFF3
:1002A00040F8042B08BF704748BF20F8022B11F01C
:1002B000804F18BF00F8012B704770477047704798
:1002C00000487047400A00207546FFF7F9FFAE4628
:1002D00005006946534620F00700854618B020B552
:1002E000FFF780FFBDE820404FF000064FF0000709
:1002F0004FF000084FF0000B21F00701AC46ACE8CE
:10030000C009ACE8C009ACE8C009ACE8C0098D463A
:10031000704710B50446AFF300802046BDE810409A
:10032000FFF74BBF01491820ABBEFEE726000200D5
:100330007047FEE70020704700207047144810B552
:10034000D0F8B82213490020135C0B54401CC0B2F3
:100350004128F9D30878442817D0472802D05328D9
:1003600013D10DE0887830280FD031280DD03228F5
:100370000BD0332809D10121074800F005F904E02A
:1003800001220649024802F007F8002010BD0000D3
:10039000F4010020B8060020000801404E000020B3
:1003A000704772B6FEE700002DE9F84FDFF8B8910C
:1003B000002409F1040A0AF1040B23460F270BF16C
:1003C000040EC9E00125A5402A40AA427DD1674E0E
:1003D000D1F804C0ACEB0608B44532D014DCBCF153
:1003E000030F3AD009DCBCF1000F2AD0BCF1010F99
:1003F0001CD0BCF1020F31D11DE0BCF1110F17D0A0
:10040000BCF1120F2AD119E0B8F5881F19D006DC0B
:10041000B8F5803F15D0B8F5801F1FD111E0B8F5B1
:10042000001F0ED0B8F5041F18D10AE0CB6815E004
:10043000CB681B1D12E0CB6808330FE0CB680C3390
:100440000CE08B682BB1012B4FF0080303D0456102
:1004500004E0042302E0056100E00023FF2A01D844
:10046000064601E000F104064FEA840501D9A5F132
:100470002005D6F8008007FA05FC28EA0C0803FAE4
:1004800005F548EA0508C6F800804D68ED0062D51C
:10049000374DAE6946F00106AE61AD6924F0030642
:1004A00005F001050095334D06EB050CDCF808500E
:1004B000A607360F07FA06F825EA0805DFF8B88020
:1004C000404503D14FF0000817E044E0DFF8AC806E
:1004D000404502D14FF001080FE0DFF8A48040450D
:1004E00002D14FF0020808E0DFF89880404502D1C1
:1004F0004FF0030801E04FF0040808FA06F848EA54
:100500000508CCF808804D68D9F80060ED034D4629
:1005100001D5164300E096432E604D68DAF800607E
:10052000AD03554601D5164300E096432E604D6855
:10053000DBF80060ED025D4601D5164300E096430E
:100540002E604D68DEF80060AD02754601D5164399
:1005500000E096432E60641C0D682A46E5407FF457
:1005600031AFBDE8F88F0000000401400000111019
:10057000001002400000014000080140000C014052
:100580000010014000140140C26821EA02030A4041
:1005900043EA0241016170470AB1016170470904F1
:1005A000FBE7000001488068704700007C000020E5
:1005B0000248816802781144816070477C00002005
:1005C000074810B5016841F010010160032000F0F8
:1005D00075F80F2000F006F800F024F8002010BD98
:1005E0000020024070B50D4D04464FF47A71287812
:1005F000B1FBF0F00A490968B1FBF0F001F008F82E
:1006000048B9102C07D200222146501E00F036F8BF
:1006100000206C6070BD012070BD00007C000020D7
:10062000880000200C4808B5816941F00101816112
:10063000816901F001010091C16941F08051C161FE
:10064000C06900F0805000900448416821F0E061EA
:1006500041F00071416008BD0010024000000140FF
:10066000002809DB00F01F020121914040098000B1
:1006700000F1E020C0F8001170470000F0B40E4B0C
:100680001B680C46C3F30223C3F10705042D00D9F0
:100690000425191D072901D2002300E0DB1E0126D5
:1006A00006FA05F1491E214099409E40761E1640EB
:1006B0003143F0BC03F05EB90CED00E0064900F0F8
:1006C000070208684FF6FF03184040EA0220034A79
:1006D00010430860704700000CED00E00000FA05D0
:1006E00010B50C0607D501F0070101EB810100EB05
:1006F000C100283005E001EB810100EBC10000F5ED
:10070000B47099B232B1012202730181190C418196
:10071000002010BD00220273C180F9E7704701EB91
:10072000810200EBC202D0F8E802D26B02F04DB8B1
:1007300001EB810200EBC202D0F8E802D2F87C2182
:1007400002F0A6B870B504460B0601F0070000EBF6
:10075000800104EBC1014FF001024FF0000503D509
:1007600081F82920283103E081F8695101F5B4713D
:10077000087094F8A802012808D084F8A8222068FC
:1007800002F0BAFC84F8A852002070BD022070BDAF
:1007900070B5044601F00F006268904201D9012053
:1007A00070BD0B0601F0070000EB800104EBC101F6
:1007B0004FF001024FF0000503D581F829202831C0
:1007C00003E081F8695101F5B4718D70087094F8F7
:1007D000A802012808D084F8A822206802F029FD88
:1007E00084F8A852002070BD022070BD2DE9F05F92
:1007F00004685FEA424C0B788D69B4F850C04FF042
:1008000000064BF68F7948F2800A48F68F7B48F253
:10081000C00E4FF480672AD54FF0020808EBC308DA
:10082000C44407EB4C07E45BC4F30904A54203D3BB
:100830002D1B8D6101D00BE08E61066836F82350C8
:1008400005EA090585F4005545EA0A0526F823500E
:10085000520609D50D78036833F8252002EA0B0209
:1008600042EA0E0223F8252084B30A8929E04FF0DA
:10087000060808EBC308C44407EB4C07E45BC4F369
:100880000904A54203D32D1B8D6101D00BE08E61BD
:10089000066836F8235005EA090585F4005545EA4F
:1008A0000A0526F82350520609D40B78056835F856
:1008B000232002EA0B0242EA0E0225F823202CB183
:1008C0004A8949690068234603F022F82046BDE8BA
:1008D000F09F2DE9F05F054600680C465FEA426C28
:1008E00016468B692278B0F850C048F68F774CF2E4
:1008F00080094FF6FF7B4FF4004E4FF4806A4FF0B3
:1009000000017BD54FF0020808EBC208E0440AEB77
:10091000480C30F80C00C0F30900834211D91B1AAF
:10092000A3610FD0730407D52E6836F822303B4000
:1009300043EA090326F8223094F82420012A50D0F3
:100940004EE1A161607810B1012813D01AE0286847
:10095000B0F85030184400EB0210B0F8042422F430
:10096000F842A0F80424B0F8042442F40042A0F8AD
:10097000042407E02868B0F85030184400EB021057
:10098000A0F804146278286812B1012A11D018E086
:10099000B0F850100844217800EB0110B0F80C14A6
:1009A00021F4F841A0F80C14B0F80C1441F4004103
:1009B00005E0B0F850201044227800EB0210A0F8B7
:1009C0000C1421782846FFF7AAFE7004B8D52178C8
:1009D0002A6832F82100384040EA090022F8210054
:1009E000FEE0626902446261E2690244E2612369F5
:1009F000226A9A4203D31846111A04E038E084F8B8
:100A000024100AB110462162617811B1012923D066
:100A10002BE02968B1F850201144227801EB021133
:100A200001F2044148B13E280FD84208C30700D064
:100A3000521C0BEA82220A8017E00A8822F4F8424C
:100A40000A800A8842F40042F5E74209C30600D151
:100A5000521E4EEA8222EEE72968B1F85020114476
:100A6000227801EB0211A1F8040483B22289B3E0D9
:100A70004FF0060808EBC208E0440AEB480C30F8D7
:100A80000C00C0F30900834211D31B1AA3610FD0DD
:100A9000730407D42E6836F822303B4043EA09033A
:100AA00026F8223094F82420012A50D098E0A16141
:100AB000607810B1012813D01AE02868B0F85030DF
:100AC000184400EB0210B0F8042422F4F842A0F815
:100AD0000424B0F8042442F40042A0F8042407E0FF
:100AE0002868B0F85030184400EB0210A0F8041445
:100AF0006278286812B1012A11D018E0B0F85010BD
:100B00000844217800EB0110B0F80C1421F4F841EE
:100B1000A0F80C14B0F80C1441F4004105E0B0F852
:100B200050201044227800EB0210A0F80C14217819
:100B30002846FFF7F4FD700452D42278296831F872
:100B40002200384040EA090021F8220048E06269AA
:100B500002446261E2690244E2612369226A9A42C4
:100B600003D31846111A216204E00AB1104621622B
:100B700084F824106278296812B1012A22D029E071
:100B8000B1F850201144227801EB021101F20C411E
:100B900048B13E280FD84208C30700D0521C0BEAC8
:100BA00082220A8016E00A8822F4F8420A800A8823
:100BB00042F40042F5E74209C30600D1521E4EEA54
:100BC0008222EEE7B1F850201144227801EB0211A5
:100BD000A1F80C04628983B26169286802F0B6FE4C
:100BE00021782A6832F8210048F6BF73184080F057
:100BF000300048F28003184322F821000020BDE8AD
:100C0000F09F2DE9F04104460F0601F0070000EBCC
:100C1000800104EBC1014FF001064FF0000503D540
:100C200081F82960283103E081F8695101F5B47138
:100C300008700A61CB704A7802B1C881022B00D1DA
:100C40000D7194F8A802012809D084F8A8622068E0
:100C500002F024F9284684F8A852BDE8F081022069
:100C6000FBE770B50C4601F0070505EB850100EBCD
:100C7000C101C1E95F230022C1F8842181F8692103
:100C800081F8685101F5B4716207006802F026FB33
:100C9000002070BD70B504460D4601F00700616884
:100CA000884201D9012070BD29064FF000064FF09F
:100CB000010207D500EB800104EBC10181F8292076
:100CC000283107E005EB850104EBC10181F869617A
:100CD00001F5B4718A70087094F8A802012807D051
:100CE00084F8A822206802F0E0FA680702D006E043
:100CF000022070BD04F52C71206802F098FA84F887
:100D0000A862002070BD70B50C4601F0070505EB28
:100D1000850100EBC101C1E90F23012281F84C20BC
:100D20008B6400234B6481F8292001F8285F620757
:100D3000006802F0D3FA002070BD1FB504460068B9
:100D400002F0E2FD000402D5204600F0BDFF20685D
:100D500002F0DAFD40050CD5206830F8441F21F47C
:100D600080610180204600F01FF90021204600F03C
:100D700036F9206802F0C8FD400405D5206830F837
:100D8000441F21F480410180206802F0BDFD8004F1
:100D900005D5206830F8441F21F4005101802068F7
:100DA00002F0B2FDC00414D5206830F8401F21F0D5
:100DB00004010180206830F8401F21F00801018003
:100DC000204600F004F9206830F8441F21F48051D7
:100DD0000180206802F098FD00053ED522680020C1
:100DE000694632F8203021F81030401CC0B2082883
:100DF000F7D332F8400F40F001001080206830F83F
:100E0000402F22F0010202802068B0F844205205F1
:100E1000FBD530F8442F22F4806202800020236842
:100E200031F8102023F82020401CC0B20828F6D347
:100E3000206830F8401F41F008010180206830F838
:100E4000441F21F400610180206830F8401F41F008
:100E500004010180204600F0F7F8206802F054FDFC
:100E6000800508D5206830F8441F21F40071018006
:100E7000204600F0B0F8206802F046FDC00505D518
:100E8000206830F8441F21F4807101801FBD0000EC
:100E90002DE9F04186B0040004D094F8A9020025A1
:100EA00020B108E0012006B0BDE8F08184F8A85226
:100EB000204600F05BF8032084F8A902206802F0C5
:100EC000AFF904F11001142288466846FFF79CF937
:100ED00094E80F0002F00EF90226D0BB0021206832
:100EE00002F02CFD002001270FE000BF00EB800185
:100EF00004EBC10181F8297001F8280FC881CD7079
:100F00000D614D61401CC0B28D6161688142EDD8B8
:100F1000002011E000EB800104EBC10181F8695170
:100F200081F8680181F86B51C1F87851C1F87C51A2
:100F3000401CC0B2C1F8805161688142EAD81422D5
:100F400041466846FFF760F994E80F0002F05FF948
:100F500010B184F8A962A5E784F8245084F8A97236
:100F6000206802F052F900209DE7000008B50068F3
:100F70000B49884212D10B48C16941F40001C1619B
:100F8000C069002200F40000009011461420FFF711
:100F900075FBBDE808401420FFF762BB08BD0000E8
:100FA000005C00400010024070B5044680680125D6
:100FB000022801D0FFF7F5F92946D4F8E80201F03C
:100FC00044FDD4F8E802BDE8704001F000BDD0F85F
:100FD000E80201F024BDD0F8E80201F02ABD10B506
:100FE000044690F8A80201280BD0012084F8A8023A
:100FF00084F82410206802F0A3FC002084F8A802E2
:1010000010BD022010BDD0F8E82200F52C7110466A
:1010100001F027BD10B5044690F8A802012810D0B1
:10102000012084F8A802206802F05EFC012120461D
:10103000FFF774FB206802F0E6F8002084F8A802AD
:1010400010BD022010BD000010B50446D0F8E80223
:1010500001F046FDA069002804D00348016841F072
:101060000601016010BD000010ED00E02DE9F8431D
:1010700005460078354CC00754D0E0690026C00012
:1010800008D4E06940F08050E061E069012600F09A
:10109000805000902E480168C90512D4016880462E
:1010A00041F480710160FFF77DFA074605E000BF5B
:1010B000FFF778FAC01B642823D8D8F80000C005D1
:1010C000F6D5206A10F4407021D0A98801F440714F
:1010D00081421CD0206A1F49012220F440700A601E
:1010E00000220A602062C00711D0FFF75BFA0746B2
:1010F00041F2883808E000BFFFF754FAC11B4145B0
:1011000002D90320BDE8F883206A8007F4D5206A5D
:10111000696820F44070084320621EB1E06920F045
:101120008050E0612878800705D56068A96820F4C0
:101130004040084360602878C00605D56068E968CB
:1011400020F48000084360600020DBE700100240CC
:1011500000700040400442422DE9F0470F46050070
:1011600061D0434E306800F00700B84209D23068C1
:1011700020F0070038433060306800F00700B842C4
:1011800051D128683B4C810712D5400703D56068D0
:1011900040F4E06060602878000703D5606840F4A0
:1011A000605060606068A96820F0F00008436060EB
:1011B0002878C00728D06868012810D02168022844
:1011C00010D0890700292EDA616821F0030101435C
:1011D0006160FFF7E7F9804641F288390DE0216848
:1011E0008903EFE78901EDE7FFF7DCF9A0EB0801E0
:1011F000494502D90320BDE8F0876068696800F0BE
:101200000C00B0EB810FEFD1306800F00700B8425E
:101210000BD9306820F0070038433060306800F0A8
:101220000700B84201D00120E5E72878400705D53E
:101230006068E96820F4E06008436060287800078F
:1012400006D56068296920F4605040EAC1006060FA
:1012500000F018F86168084AC1F30311515CC840F6
:101260000649086006480068FFF7BCF90020C2E79D
:101270000020024000100240AE3900088800002023
:101280008000002012A185B00FC98DE80F0014A0C6
:10129000144A006804905168134801F00C03042BB1
:1012A00010D0082B0ED1C1F38343C9031DF80300EE
:1012B0000AD5516804AAC1F34041515C0A4A50431F
:1012C000B0FBF1F005B0704708494843FAE7000069
:1012D00002030405060708090A0B0C0D0E0F101077
:1012E000010200000010024000127A0000093D00D7
:1012F0002DE9F84F040070D02078C04DC00749D0C8
:101300006868C0F38100012807D06868C0F38100D5
:10131000022809D16868C00306D52868800339D53A
:1013200060680028E7D035E06068B0F5803F0BD0FA
:1013300010B1B0F5A02F11D0286820F480302860BB
:10134000286820F4802002E0286840F4803028607B
:10135000606890B1FFF726F906460AE0286840F475
:1013600080202860F0E700BFFFF71CF9801B64288D
:1013700073D828688003F7D50CE0FFF713F9064609
:1013800005E000BFFFF70EF9801B6428F0D828683D
:101390008003F7D420789A4E80074FF001094FF070
:1013A000000839D5686810F00C0F07D06868C0F3E2
:1013B0008100022809D16868C00306D42868800724
:1013C00014D52069012808D110E02069B0B1C6F811
:1013D0000090FFF7E7F8074605E00AE1FFF7E2F8BB
:1013E000C01B0228C4D828688007F7D5286861691F
:1013F00020F0F80040EAC10028600DE0C6F8008047
:10140000FFF7D0F8074604E0FFF7CCF8C01B02282E
:1014100023D828688007F7D4207800072CD579488E
:10142000A169D9B1C0F80090FFF7BCF8074604E005
:10143000FFF7B8F8C01B02280FD8686A8007F7D5F5
:1014400071484FF4FA510068B0FBF1F0009000BF12
:101450000098411E0091FAD20EE080E0C0F80080B2
:10146000FFF7A0F8074604E0FFF79CF8C01B02282E
:1014700075D8686A8007F7D42078400760D5E86996
:101480000027C00008D4E86940F08050E861E869AE
:10149000012700F0805000905C480168C90513D412
:1014A0000168834641F480710160FFF77BF8824652
:1014B00006E000BFFFF776F8A0EB0A0064284ED8DC
:1014C000DBF80000C005F5D5E06801280AD008B1B6
:1014D000052813D0286A20F001002862286A20F02D
:1014E000040002E0286A40F001002862E06841F24E
:1014F000883B98B1FFF756F882460BE0286A40F027
:1015000004002862EEE700BFFFF74CF8A0EB0A01E9
:1015100059455AD8286A8007F6D50CE0FFF742F8FB
:10152000824605E0FFF73EF8A0EB0A0159454CD88A
:10153000286A8007F6D41FB1E86920F08050E8617E
:10154000E06988B36968C1F38101022944D00228A7
:10155000C6F8608004D0FFF725F8044638E034E090
:10156000FFF720F8074604E0FFF71CF8C01B02282D
:101570002BD828688001F7D4206AB0F5803F05D1C8
:101580006868A16820F4003008436860D4E9080165
:101590000843696821F4741108436860C6F86090D4
:1015A000FFF700F8044606E025E000BFFEF7FAFF6B
:1015B000001B022809D828688001F7D51BE000BF6E
:1015C000FEF7F0FF001B022802D90320BDE8F88FC8
:1015D00028688001F4D40EE00128F7D06868226AF8
:1015E00000F48031914204D1616A00F470108842A5
:1015F00001D00120EAE70020E8E7000000100240E7
:1016000000004242800442428800002000700040F6
:1016100010B5401EB0F1807F01D3012010BD4FF006
:10162000E02460610F21601702F0A4F90020A0619E
:1016300007202061002010BD10B590F83C20012A41
:1016400022D0012280F83C20CA688C6822F44072C3
:1016500022434C6822F4806222430C6822F4006228
:1016600022430C6922F4805222434C6922F4005236
:101670002243C969002322F480420A4301684A6474
:1016800080F83C30002010BD022010BD70B590F8ED
:101690003C20012A26D0012480F83C40022280F818
:1016A0003D2003685A689D6822F070060A6832433C
:1016B0005A600D4B02689A4208D0B2F1804F05D0B3
:1016C0000A4B9A4202D00A4B9A4204D1496825F04B
:1016D00080031943916080F83D40002180F83C1060
:1016E000084670BD022070BD002C0140000400407F
:1016F0000008004010B5040003D094F83D0010B17C
:1017000007E0012010BD002084F83C00204600F0D6
:101710001FF8022084F83D00211D206800F09EFC87
:10172000012084F8460084F83E0084F83F0084F8E5
:10173000400084F8410084F8420084F8430084F8B3
:10174000440084F8450084F83D00002010BD0000EE
:1017500008B50C4A01680C48914207D1816941F4EF
:1017600000618161806900F4006009E0074A9142EC
:1017700007D1C16941F00201C161C06900F00200F6
:10178000009008BD002C0140001002400004004001
:1017900070B5044690F83C00012817D0012584F864
:1017A0003C50022084F83D002068826822F07702D5
:1017B00022F47F4282600868502830D00DDC202857
:1017C0004DD005DC98B310283BD148E0022070BD15
:1017D000302844D0402834D139E0602828D07028FF
:1017E00006D0B0F5805F2CD0B0F5005F29D10AE0BB
:1017F000CB68D1E90121206800F066FC206881688F
:1018000041F0770109E0CB68D1E90121206800F0BF
:101810005BFC2068816841F48041816011E0CA6806
:101820004968206800F004FD5021206807E016E0B8
:10183000CA684968206800F00CFD6021206800F04B
:101840004DFC84F83D50002084F83C0070BDCA680F
:101850004968206800F0ECFC40212068EFE722682E
:1018600001461046EBE7000010B586B0002100915C
:101870000191029103911C4B02681C4902241C48EF
:101880009A420DD18A6942F004028A6189690394FF
:1018900001F0040104918115CDE9001469461EE0B0
:1018A000144B9A421DD18A6942F004028A618A6906
:1018B00002F0040204928A6942F008028A6189698E
:1018C000039401F0080104914021CDE90014694618
:1018D000FEF76AFD00940194694607480394FEF7F9
:1018E00063FD06B010BD0000002C01400010024056
:1018F0000008014000040040000C014070B504469F
:1019000090F83C000D4601280AD0012084F83C00E4
:1019100042B1042A18D0082A2AD00C2A4DD139E025
:10192000022070BD206800F0E1FB2068816941F071
:10193000080181612068816921F0040181612068CA
:1019400081692A69114311E0206800F0F7FB2068E3
:10195000816941F4006181612068816921F48061BD
:101960008161206881692A6941EA0221816124E05C
:10197000206800F00FFC2068C16941F00801C161D6
:101980002068C16921F00401C1612068C1692A6928
:10199000114311E0206800F029FC2068C16941F47E
:1019A0000061C1612068C16921F48061C161206862
:1019B000C1692A6941EA0221C161002084F83C0022
:1019C00070BD10B5040003D094F83D0010B107E0DD
:1019D000012010BD002084F83C00204600F01EF8D5
:1019E000022084F83D00211D206800F037FB012013
:1019F00084F8460084F83E0084F83F0084F84000F4
:101A000084F8410084F8420084F8430084F84400DC
:101A100084F8450084F83D00002010BD7047FEE7C3
:101A2000F0B500230A24302537261F4611E000BFF9
:101A3000B4EB107F02D905EB107C01E006EB107CC3
:101A400001F813C001EB430C00015B1C8CF8017022
:101A5000DBB29342ECD3F0BD2DE9F04385B0002416
:101A600021480094019402940394816941F020017B
:101A70008161816901F020010491816941F00401D3
:101A80008161816901F004010491816941F00801DB
:101A900081618069DFF8548000F0080040F2A125E0
:101AA0000490002229464046FEF776FDDFF840907C
:101AB00040F20147002239464846FEF76DFD009589
:101AC000022601250396CDE9015469464046FEF7FA
:101AD0006BFC00970396CDE9015469464846FEF732
:101AE00063FC05B0BDE8F08300100240000801402F
:101AF000000C014010B596B000240F94109411947E
:101B0000129413941C2108A81494FEF7AFFB202113
:101B10006846FEF7ABFB2948274901604721C0E929
:101B2000011440F2F311C0E903148021C0E905411A
:101B3000FFF7E0FD08B172B6FEE74FF480500F905A
:101B40000FA91E48FFF724FE08B172B6FEE71B4836
:101B5000FFF737FF08B172B6FEE7139413A91748D1
:101B60001494FFF793FD08B172B6FEE76020089069
:101B7000F920CDE909040B940C940D94002208A9D6
:101B80000E480E94FFF7BAFE08B172B6FEE7009455
:101B90004FF40050CDE90440029401940394694647
:101BA00006480794FFF748FD08B172B6FEE7034800
:101BB000FFF75AFE16B010BD002C01406401002052
:101BC00010B58EB000240794089409940A940B94DD
:101BD0001C2168460C94FEF749FB24482249016009
:101BE0004721C0E9011440F2F311C0E90314802138
:101BF0008161FFF77FFD08B172B6FEE74FF48050B8
:101C0000079007A91948FFF7C3FD08B172B6FEE7B0
:101C10001648FFF7D6FE08B172B6FEE70B940BA983
:101C200012480C94FFF732FD08B172B6FEE760204F
:101C3000CDE900040294002269460C480494FFF7A1
:101C40005DFE08B172B6FEE7F92001900C226946EC
:101C50000648FFF753FE08B172B6FEE70348FFF7E8
:101C600003FE0EB010BD000000040040AC010020D7
:101C700010B500220F49104800F080FD08B1FEF7B2
:101C800090FB0E490C4800F051FF08B1FEF789FBAC
:101C90000B49094800F078FB08B1FEF782FB0648C3
:101CA00000F09AFF002803D0BDE81040FEF779BB92
:101CB00010BD000000000020F40100209000002072
:101CC0006C000020FEE7FEE72DE9F84F044640F6E1
:101CD0008F7B48F60F7A4FF002094FF4806874E169
:101CE000B0F8441011F00F063AD030F826703904DD
:101CF0007DD530F8261001EA0B0141F0800120F873
:101D0000261006EB860004EBC00595F8740105F576
:101D1000B47500286CD0E87802286AD02878226848
:101D200032F8201048F68F73194048F2C003194367
:101D300022F820102878D4F800C03CF82010BCF815
:101D4000502049047ED509EBC000111808EB410072
:101D50003CF800008005800D009074D02A89D8E0FE
:101D6000C9062DD4018801EA0A0141F4004101802D
:101D7000216804F12805B1F850202B7809EBC30045
:101D8000024408EB4200085AC0F309006064E16BAA
:101D90000844E06300212046FEF7C1FC94F82400CB
:101DA00000289CD0A869002899D194F824002168C3
:101DB00040F08000A1F84C00002084F8240004E1E9
:101DC000018804F5B4750A0521D5B0F850202B78A8
:101DD000062101EBC3010A4408EB4201405A04F515
:101DE0002C71C0F30903EB61EA88206802E0ACE0E3
:101DF00068E07AE001F08CFD2168088800EA0B00B9
:101E000040F0800008802046FFF7FDF8DDE009047F
:101E1000D5D5018801EA0B0141F0800101802068DD
:101E2000B0F850202B78062101EBC3010A4408EBDF
:101E30004201405A83059B0DEB6110D0696971B175
:101E4000EA8801E058E056E0206801F061FDE969A8
:101E500068690844686100212046FEF769FC206833
:101E6000018809052DD4B0F850100844296900F202
:101E70000C4051B13E2910D84A08C90700D0521C65
:101E80004FF6FF7101EA82210FE0018821F4F84149
:101E90000180018841F4004107E04A09C90600D1E8
:101EA000521E4FF4004141EA8221018020680188DE
:101EB0004BF68F72114081F4405148F28002114379
:101EC000018082E0D4F800C0BCF850102A780620C7
:101ED00000EBC200014408EB41003CF80000800523
:101EE000800D00901AD0EA8813E03A462946204631
:101EF000FEF77CFC009011E0062101EBC0001118F8
:101F000008EB41003CF800008005800D009005D0F2
:101F10006A8903466046696901F0FAFCE96900983C
:101F20000844E8616969009808446861A86918B1C3
:101F300029690098814204D929782046FEF7F8FBE8
:101F400003E02946206801F0C9F938063DD506EBC3
:101F5000860004EBC001206830F8262002EA0A025D
:101F600042F4004220F8262091F82B002831032863
:101F700004D018B1022824D1F80522D42368B3F87C
:101F800050200D7809EBC500024408EB4200185AB6
:101F90008A69C0F3090082420CD9121A8A610BD0F7
:101FA0004A6902444A61CA691044C861206801F064
:101FB00095F90AE000208861E9B22046FEF7AFFB00
:101FC00003E03A462046FEF784FC2068B0F844104F
:101FD00009043FF585AE0020BDE8F88F70477047D3
:101FE000FEF7E6BA30B593B028216846FEF73EF911
:101FF00014210AA8FEF73AF9002401200F94109446
:102000001194010412948DE8130004904FF4E01031
:10201000CDE90810022507956846FFF769F908B170
:1020200072B6FEE70F20CDE90A054FF48060CDE9D6
:102030000C4002210AA80E94FFF78EF808B172B680
:10204000FEE710200F9012940FA8FFF70FF800285A
:1020500001D072B6FEE713B030BD7047F0B502682C
:10206000164B174C174D4FF08047984205D0B84299
:1020700003D0A04201D0A84203D122F070064A68E2
:102080003243984205D0B84203D0A04201D0A842C2
:1020900003D122F44074CA6822434C6922F08002C2
:1020A000224302608A68C2620A688262984201D151
:1020B0000969016301214161F0BD0000002C01406C
:1020C000000400400008004010B5846842EA032282
:1020D00024F47F440A432243826010BD826822F0C8
:1020E00070020A4342F007018160704730B5026A0E
:1020F00022F001020262026A4368846924F07305D7
:102100000C682C4322F002058A682A430A4DA84233
:102110000BD122F00805CA6823F440732A434D69A5
:1021200022F004021D438B692B434360846149689C
:102130004163026230BD0000002C014030B5026AEC
:1021400022F010020262026A436884690D6824F476
:10215000E64444EA05248D6822F0200242EA051292
:102160000B4DA8420ED1CD6822F0800242EA051242
:102170004D6923F4406343EA85038D6922F04002F0
:1021800043EA85034360846149688163026230BD2C
:10219000002C014030B5026A22F480720262036AA8
:1021A0004268C46923F4007324F073050C682C435F
:1021B0008D6843EA05230C4DA8420ED1CD6823F467
:1021C000006343EA05234D6922F4405242EA0512B6
:1021D0008D6923F4806342EA05124260C461496854
:1021E000C163036230BD0000002C014030B5026ABB
:1021F00022F480520262046A4268C3690D6823F4C3
:10220000E64343EA05238D6824F4005444EA053488
:10221000064DA84204D14D6922F4804242EA85125B
:102220004260C36149680164046230BD002C014012
:1022300010B5036A046A24F001040462846924F07E
:10224000F00444EA021423F00A020A4384610262A1
:1022500010BD10B5036A23F0100303628369046A9A
:1022600023F4704343EA023224F0A00343EA01114D
:102270008261016210BDD0F8B802002180F85010D0
:102280000846704770B50546D0F8B842D5F8BC226C
:102290006178D26820789047402322460121284661
:1022A00000F08CFB002070BD70B50446812100F069
:1022B00083FA002501212046E56200F07DFAC4F88A
:1022C0006C51D4F8B80248B1D4F8BC0204F52E74AD
:1022D00080688047206800F0DCFD2560002070BD2C
:1022E00010B5D0F8B842E16C012908D1D0F8BC0291
:1022F00023786178C268184690470020E064002087
:1023000010BD00000A2101800048704758010020DC
:102310002921018000487047C80000202921018040
:1023200000487047F40000202921018000487047D0
:102330002001002070B504460026022303228121DB
:1023400000F030FB01250223032229462046E562E6
:1023500000F028FB5420C4F86C5100F09BFDC4F839
:10236000B80278B10546002085F85000D4F8BC02C8
:102370004068804740232A460121204600F01EFB8A
:10238000304670BD0126FBE702460220002902D03C
:102390000020C2F8BC12704710B5134690F89C425A
:1023A000D0F8B822032C0BD192F850400CB1012088
:1023B00010BD012482F850400A46812100F099FBAB
:1023C000002010BDF8B50022D0F8B832ADF80020DA
:1023D0000E781546144616F0600622D0202E56D1EF
:1023E0004A78921E0A2A52D2DFE802F010085151B0
:1023F000515151140C05887818644BE0012203F107
:10240000400135E04888000A586443E0012203F1A6
:1024100044012DE00122DA64CA88194600F064F80C
:1024200038E04E7836B1062E0BD00A2E23D00B2E74
:102430002DD128E090F89C22032A28D10222694657
:1024400016E04B882226B6EB132F07D1CA881C2A28
:1024500000D91C22D0F8BC120D6808E02126B6EB8A
:10246000132F04D1CA880E4D092A00D90922294602
:1024700000F054F80EE090F89C22032A07D10122C4
:1024800003F14801F4E790F89C22032A04D000F0FD
:1024900020F802242046F8BD88789864FAE7000006
:1024A0004C01002010B5D0F8B422526890470020AB
:1024B00010BD134610B50A46002100F07FFA002037
:1024C00010BD134610B50A46002100F012FB002093
:1024D00010BD10B50446802100F0F0FA2046BDE89A
:1024E0001040002100F0EABA10B50323C0F85C21C7
:1024F000C0F89432C0F8602113460A46002100F06B
:102500005DFA002010BD10B505210023C0F894121B
:102510001A46194600F052FA002010BD10B50223E9
:10252000C261C0F89432026213460A46002100F0EC
:10253000E0FA002010BD10B504210023C0F8941269
:102540001A46194600F0D5FA002010BD10B50A460B
:10255000024903A000F0E2F8004810BDB8040020D2
:10256000437573746F6D2048494420436F6E6669EC
:1025700067000000122008800048704720000020FB
:1025800010B50A46024903A000F0C8F8004810BD83
:10259000B8040020437573746F6D20484944204986
:1025A0006E74657266616365000000000420088037
:1025B000004870471C00002010B50A46024903A0DD
:1025C00000F0ACF8004810BDB804002053544D6929
:1025D00063726F656C656374726F6E69637300001C
:1025E00010B50A46024903A000F098F8004810BD53
:1025F000B8040020434E434D6963610010B51A20B2
:1026000008800A480168001D0468001D0068081859
:1026100009D008220649FFF703FA054904221031C0
:102620002046FFF7FDF90248801E10BDE8F7FF1FA6
:1026300036000020F8B504460020ADF800004888B8
:102640000D46010A082948D2DFE801F047040917BE
:1026500047473C45D4F8B012207C0A6819E0207C3A
:1026600002260028D4F8B40205D0C16A684688471B
:10267000014646703EE0816AF8E7C0B206282CD2D7
:10268000DFE800F0030A1014181CD4F8B002426806
:1026900005E0694690471CE0D4F8B0028268E2B1D8
:1026A000207CF6E7D4F8B002C268F8E7D4F8B002AC
:1026B0000269F4E7D4F8B0024269F0E7D4F8B00256
:1026C0008269ECE7207C40B9D4F8B402416B6846DB
:1026D000884701460EE0207C20B129462046FFF7BE
:1026E000F8FEF8BDD4F8B402016B6846884701468D
:1026F00007204870BDF8000048B1EA8852B1824214
:1027000000D90246ADF800202046FFF707FFE88811
:102710000028E6D12046FFF70EFFF8BD70B5002374
:1027200000281ED00446002502E06D1CEDB2641C9A
:102730002678002EF9D1022404EB45041480127887
:10274000CA545B1C0322CA5400245B1C06E0CA5412
:102750005B1CDAB28C54521CD3B2401C0278002AA3
:10276000F5D170BD01004FF0000004D0012901D067
:10277000022901D0022070470120704710B580B1B6
:10278000D0F8B43213B10023C0F8B43209B1C0F8A4
:10279000B012012180F89C12027000F0BBF80020FA
:1027A00010BD022010BD10B5D0F8C002FDF7F0FF3B
:1027B000BDE81040FFF7D6BF10B5D0F8C002FDF756
:1027C000C1FFBDE81040FFF7CDBF2DE9F04117462E
:1027D000044651B1D4F8B40242691AB194F89C028B
:1027E000032851D00220BDE8F081D4F894320025AE
:1027F00004F11400022B03D0042B3AD0C3B33CE005
:10280000D0E903639E4207D9F11AC1608AB2394602
:102810002046FFF756FE12E08068B0FBF3F103FBA1
:10282000110199B9984211D3D4F8981288420DD267
:10283000002211462046FFF744FEC4F898520023B8
:102840001A461946204600F0B9F816E0D4F8B4024A
:10285000C16829B194F89C02032801D12046884719
:102860008021204600F02AF92046FFF74CFE04E0C4
:10287000FFE78021204600F021F994F8A00201280A
:1028800004D184F8A05201E0204690470020AAE736
:1028900070B51546044649B1D4F8B40282691AB13C
:1028A00094F89C02032830D0022070BDD4F8941212
:1028B00004F5AA70032902D005291ED027E0D0E92B
:1028C00003218A420BD9531AC3600846834200D3BE
:1028D00003469AB229462046FFF7EBFD17E0D4F8ED
:1028E000B402016929B194F89C02032801D1204661
:1028F00088472046FFF71FFE09E000200146C4F884
:102900009402204600F0DAF801E0204690470020CB
:1029100070BD000010B519490446C1F8E802C0F8BE
:10292000C012174808600820486002208860002014
:102930008861C86108620846FEF7AAFA08B1FDF787
:1029400030FD0022D4F8C0021823114604F530747B
:10295000FDF7C6FE5823002280212068FDF7C0FE47
:102960009823002281212068FDF7BAFED823002297
:1029700001212068FDF7B4FE002010BD540700209F
:10298000005C00400A0601F07F01D0F8C00201EBB4
:10299000810100EBC10002D590F82A00704790F841
:1029A0006A01704710B51C461346D0F8C002224693
:1029B000FEF727F9BDE81040FFF7D4BE10B5D0F8F8
:1029C000C002FEF74EF9BDE81040FFF7CBBE70B570
:1029D0000022044640231146FFF7E4FF402601256C
:1029E000C4F864613346002280212046C4F858515F
:1029F000FFF7D8FF6662A56184F89C520020C4F8F6
:102A000094026060C4F8A402D4F8B80228B1D4F8E3
:102A1000B4020021426820469047002070BD90F823
:102A20009C12042903D190F89D1280F89C1200207A
:102A3000704710B590F89C12032904D1D0F8B41255
:102A4000C96901B18847002010BD0174002070479A
:102A500010B5D0F8C002FEF7C2FABDE81040FFF78B
:102A600081BE70B5044600F52A70054600F04AF8AC
:102A70000120C4F89402B4F8AE02C4F8980294F8A5
:102A8000A80210F01F010AD001290DD0022910D090
:102A900000F08001204600F011F8002070BD2946AA
:102AA000204600F09EF8F8E72946204600F0CAF9D3
:102AB000F3E72946204600F01DF9EEE710B5D0F8FF
:102AC000C002FEF7E7F8BDE81040FFF74BBE10B5B7
:102AD000D0F8C002FEF79EFABDE81040FFF742BEF4
:102AE00090F89C1280F89D12042180F89C1200201E
:102AF000704710B5D0F8C002FEF705F9BDE81040E8
:102B0000FFF730BE0A7802704A7842708A78CB7834
:102B100002EB032242800A794B7902EB0322828086
:102B20008A79C97902EB0121C180704702460020F1
:102B300011B1C2F8B41270470220704710B5D0F836
:102B4000B42202241AB11268904700B9002420462A
:102B500010BD000070B50E461E4D897804462970E0
:102B6000012931D894F89C0202280BD003280FD0F9
:102B700031462046FFF7ADFC29782046BDE870407D
:102B8000FFF790BCD9B10320616084F89C0209E092
:102B900071B16068884212D0C1B22046FFF782FC52
:102BA000297861602046FFF7C9FF02280CD006E0B3
:102BB000022084F89C0220466160FFF773FC2046E7
:102BC000BDE87040FFF7B7BC31462046BDE8704015
:102BD000FFF77FBC8C00002010B5FFF778FF0020C6
:102BE00010BD2DE9F0410A78002612F0600208D0ED
:102BF000202A01D0402A70D1D0F8B42292689047A0
:102C00006DE04B78002201250A2B66D2DFE803F045
:102C1000405D6557650805652C29FFF70BFD5EE0F3
:102C200004468888D8B9C888C8B94888802816D288
:102C300000F07F0794F89C02032810D084F89E725D
:102C400039462046FFF704FF2046FFF774FC1FB10A
:102C5000022084F89C0242E084F89C523FE0204627
:102C60003BE0FFF777FF3AE0CB88012B35D190F8B6
:102C70009C32012B04D0022B02D0032B2DD104E077
:102C80008260012200F1080116E00122011D13E01B
:102C900090F89C22012A03D0022A01D0032A1CD1D9
:102CA000CA88022A19D1C560D0F8A41209B103213B
:102CB000C160022200F10C01FFF730FC0FE04988EF
:102CC00001290CD1C0F8A45211E090F89C32012BDC
:102CD00008D0022B06D0032B04D0FFF7FAFB3046B6
:102CE000BDE8F08149880129F9D1C0F8A422FFF795
:102CF00022FCF4E72DE9F0410A460446107800274B
:102D0000097910F060030AD0202B01D0402B50D15C
:102D1000D4F8B40211468368204698478FE0C0F388
:102D20004110012806D05078D0B301282AD00328BA
:102D30003FD107E0D4F8B402114683682046BDE8CD
:102D4000F041184794F89C02022802D0032872D15F
:102D50000AE071B380296ED02046FFF7AFFE8021D4
:102D60002046FFF7ABFE6AE0508838B931B18029C0
:102D700004D0D08810B92046FFF7A0FE2046FFF708
:102D8000DAFB5CE094F89C020228E2D0032852D1DE
:102D9000508898BB4806F1D02046FFF704FDEDE7C8
:102DA000FFE794F89C020026022803D0032842D1B2
:102DB00012E040E009B180293DD1080601F07F0012
:102DC00000EB800004EB800101D5143101E001F536
:102DD000AA7102220E602AE0080601F00F0000EB43
:102DE000800004EB80000AD5806920B301F07F00E9
:102DF00000EB800004EB800514350BE01FE0D0F8F9
:102E00005801C0B101F07F0000EB800004EB8005A9
:102E100005F5AA7541B1802906D02046FFF7B2FD1D
:102E200010B10120286000E02E60022229462046D1
:102E3000FFF774FB03E011462046FFF74AFB3846D4
:102E4000BDE8F08170B5054608780C4610F06000CA
:102E500003D0202801D0402816D195F89C020128E3
:102E600003D0022801D003280ED1207901280BD8E5
:102E7000D5F8B402826828469047E188014306D11C
:102E80002846FFF758FB02E02846FFF722FB002008
:102E900070BD704700487047FC0600202DE9F047E0
:102EA0000C78002630F8243048F68F121340CA7888
:102EB000002A7DD0012A7CD0022A02D0032A7FD0AA
:102EC000012648F28002134320F824300D7830F8B0
:102ED000254048F68F731C402C43144320F82540AE
:102EE0000D7B48F2C00C48F6BF744CF280074BF6DD
:102EF0008F79EDB391F80080C24630F8285048F23F
:102F000080181D4045EA080520F82A50B0F85050B6
:102F100091F80080054405EB0815B1F8088028F009
:102F20000108A5F80084B0F8505091F800800544DD
:102F300005EB0815B1F80A8028F00108A5F8088407
:102F40004D78002D0D7830F825804FEA48487DD027
:102F5000B8F1000F07DA30F8258008EA030848EADC
:102F6000070820F825800F7830F827506D0600E01C
:102F70002CE006D530F827501D4045EA0C0520F816
:102F80002750CB780D78012B30F8253003EA040365
:102F900001D083F02003134320F825300B7830F85C
:102FA000231001EA0901114320F82310304602E002
:102FB00003E008E004E0BDE8F08743F4007380E735
:102FC00043F4C0637DE743F480637AE74D782DB323
:102FD000B0F850500F78054405EB0715CF8827F05F
:102FE0000107A5F800740F7830F827506D0606D554
:102FF00030F827501D4045EA0C0520F82750CB78C3
:10300000012B06D00B7830F82310214081F02001ED
:10301000C9E70B7830F823102140C4E7B0F85040DE
:103020000D78044404EB0514CD8825F00105A4F8BF
:103030000854B0F850400D78044404EB05140D69B1
:1030400004F20C4475B13E2D14D800E030E04FEA94
:10305000550CED0701D00CF1010C4FF6FF7505EA98
:103060008C2511E0258825F4F8452580258845F430
:10307000004509E04FEA551CED0601D1ACF1010C09
:103080004FF4004545EA8C2525800D7830F8254021
:10309000640405D530F825401C403C4320F8254009
:1030A0000B7830F8231001EA090181F440517AE7E6
:1030B000B8F1000F07DA30F8258008EA030848EA7B
:1030C000070820F825800F7830F827506D0606D5C0
:1030D00030F827501D4045EA0C0520F827500D78A0
:1030E00030F8253003EA090383F44053134320F8F2
:1030F00025308EE7002070472DE9F04391F80C80D1
:103100004F780A7848F6BF7C4BF68F7948F28003F7
:1031100048F2C0054CF2800648F68F74B8F1000FF3
:1031200028D0002F30F822704FEA474748D0002FB0
:1031300005DA30F822702740374320F822700A78E9
:1031400030F822707F0605D530F8227027402F43D3
:1031500020F822700D7830F825202240324320F8E4
:1031600025200C7830F8242002EA0C021A4320F8BB
:1031700024201AE07FB130F82260760605D530F8B9
:10318000226026402E4320F822600A7830F8221070
:1031900001EA0C010EE030F822506D0405D530F83C
:1031A00022502540354320F822500A7830F822106A
:1031B00001EA0901194320F822100020BDE8F0833C
:1031C000002F05DA30F822702740374320F82270AC
:1031D0000A7830F82260760605D530F8226026405D
:1031E0002E4320F822600E7830F8262022402A4311
:1031F00020F826200C7830F8242002EA09021A432D
:1032000020F82420C1E700207047002070470121EA
:1032100020F8401F0021018081800182084670470C
:1032200030F8401F21F43F4101800020704700200A
:10323000704730B50A7BB2BB4A7848F68F7548F2C2
:103240008004C2B10B7830F82320520607D530F83D
:1032500023202A4048F2C0052A4320F82320CA78B8
:10326000012A20D00A7830F8221048F6BF7319409E
:1032700081F0200114E00A7830F822305B0407D591
:1032800030F822302B404CF280052B4320F82230BE
:103290000A7830F822104BF68F73194081F44051B0
:1032A000214320F82210002030BD10B54A7809785B
:1032B000002A48F2800330F8212005D048F6BF7478
:1032C000224082F0100204E04BF68F74224082F418
:1032D00080521A4320F82120002010BD2DE9F0472C
:1032E0000E464B78097B04464FF0000948F68F7272
:1032F00048F2800A4FF6FF774FF40048012B09D0BF
:1033000000296ED0F07802286CD001286BD0012003
:10331000BDE8F087B5693069854200D90546C9B175
:10332000F17848F28013022923D0317834F8210053
:103330001040184324F82100306A401B3062307876
:1033400034F82010490671787ED500297DD00129F6
:103350007CD03FE1ABB2F2882046716900F0F6FA0A
:10336000B4F850003178204400EB0110A0F8045468
:10337000EAE0316A81426AD9317834F8210010409C
:10338000184324F82100306A401B3062307834F84A
:103390002010490671786CD511B1012924D02AE09A
:1033A000B4F85010214401EB001000F20C404DB174
:1033B0003E2D0FD86908EA0700D0491C07EA812191
:1033C000018018E0018821F4F8410180018841F46E
:1033D0000041F5E76909EA0600D1491E48EA812162
:1033E000EEE79CE1BCE126E2B4F85020111901EBB4
:1033F0000010A0F80C547289ABB22046716900F03D
:10340000A5FA7069284470613169306A884202D92E
:10341000401B306202E00546C6F820907078002814
:103420007CD1B4F850003178204400EB011000F258
:1034300004406DB13E2D13D86908EA0700D0491C3D
:1034400007EA8121018012E001E19BE0BBE084E01A
:10345000018821F4F8410180018841F40041F1E73D
:103460006909EA0600D1491E48EA8121EAE7328962
:1034700065E011B1012921D027E0B4F850102144B2
:1034800001EB001000F204404DB13E2D0FD8690849
:10349000EA0700D0491C07EA8121018015E0018874
:1034A00021F4F8410180018841F40041F5E7690900
:1034B000EA0600D1491E48EA8121EEE7B4F850102F
:1034C000214401EB0010A0F804543289ABB220462D
:1034D000716900F03BFA7069284470613169306AA3
:1034E000884202D9401B306202E00546C6F82090AF
:1034F000707800287ED1B4F850003178204400EB79
:10350000011000F20C4055B13E2D10D86908EA07B1
:1035100000D0491C07EA812101800FE072E0018898
:1035200021F4F8410180018841F40041F4E7690980
:10353000EA0600D1491E48EA8121EDE77289ABB263
:103540002046716900F002FA317834F8210048F61B
:10355000BF72104080F03000C0E1327834F82200B1
:1035600048F68F63184040EA0A0024F82200B4F8B5
:1035700050003278204400EB02108BB2A0F80434E3
:103580003289DDE7B4F85010214401EB001000F25D
:103590000C404DB13E2D0FD86908EA0700D0491CF8
:1035A00007EA8121018015E0018821F4F8410180BA
:1035B000018841F40041F5E76909EA0600D1491E96
:1035C00048EA8121EEE7B4F85020111901EB001010
:1035D000A0F80C547289ABB22046716900F0B6F9BC
:1035E0007069284470613169306A884203D9401B90
:1035F000306203E06EE00546C6F82090002DA3D0AF
:10360000707858B101287FF41EAFB4F850003178BB
:10361000204400EB0110A0F8045428E7B4F850004F
:103620003178204400EB011101F204413E2D06D80F
:103630006808EA0700D0401C07EA802005E0680916
:10364000EA0600D1401E48EA802008800FE711B149
:10365000012921D027E0B4F85010214401EB0010DB
:1036600000F204404DB13E2D0FD86908EA0700D0A2
:10367000491C07EA8121018015E0018821F4F84105
:103680000180018841F40041F5E76909EA0600D1AB
:10369000491E48EA8121EEE7B4F85010214401EBBD
:1036A0000010A0F804543289ABB22046716900F0D2
:1036B0004DF97069284470613169306A884202D9D5
:1036C000401B306202E00546C6F82090002D96D0DF
:1036D000707858B101287FF420AFB4F85010081961
:1036E000317800EB0110A0F80C5427E7B4F8500033
:1036F0003178204400EB011101F20C413E2D06D837
:103700006808EA0700D0401C07EA802005E0680945
:10371000EA0600D1401E48EA802008800EE7B16921
:103720003069814202D9091AB161B5E00846C6F88C
:103730001890B1E0088820F4F8400880088840F428
:1037400000400BE03E2875D84208C00700D0521C4C
:1037500007EA822002E000BF48EA82200880B5E044
:1037600093B9B4F850003178204400EB011031696E
:1037700000F2044069B13E2913D84B08C90700D0B4
:103780005B1C07EA83210180707888B1012832D060
:103790003AE0018821F4F8410180018841F40041B8
:1037A000F1E74B09C90600D15B1E48EA8321EAE72D
:1037B000B4F850003178204400EB0110316900F278
:1037C0000C4049B13E290FD84B08C90700D05B1CFB
:1037D00007EA8321018017E0018821F4F841018084
:1037E000018841F40041F5E74B09C90600D15B1E91
:1037F00048EA8321EEE7B4F850100819317800EB5D
:103800000110318AA0F80C14F069A8B3317834F8AB
:103810002100430401D5430603D444F24003184277
:1038200054D134F82100104048F2C002104324F86B
:1038300021004BE03CE0B1693069814202D9091AAC
:10384000B16102E00846C6F818908BB9B4F8501080
:103850003278214401EB021101F2044168B13E28A3
:1038600013D84208C30700D0521C07EA82220A80FC
:10387000717889B1012921D028E00A8822F4F84220
:103880000A800A8842F40042F1E74209C30600D1E7
:10389000521E48EA8222EAE7B4F8501032782144F6
:1038A00001EB021101F20C4100287FF44BAF41E71C
:1038B0004209C0067FF450AF521E4DE7B4F85020C5
:1038C0001119327801EB0211A1F80C04317834F8A7
:1038D00021004BF68F72104080F4405040EA0A00FD
:1038E00024F82100002013E50021A0F844104FF433
:1038F0003F41A0F840100020704700000148FDF74C
:103900001CBA000054070020B0F8440070470000C3
:1039100010B500EB42005C0800F5806009D000BFE4
:1039200030F8042B01F8012B120A01F8012B641E58
:10393000F6D1DA0701D00088087010BD002070476A
:1039400011B98021A0F84C100020704710B55B1C05
:1039500000EB42005B0800F5806009D011F8012BF4
:1039600011F8014B42EA042220F8042B5B1EF5D12A
:1039700010BDFEE70907090E002804DB00F1E02076
:1039800080F80014704700F00F0000F1E02080F88C
:10399000141D7047FCF714FEFEF724FBFEF75CF8DD
:1039A000FEF7A8F8FEF70CF9FEF762F9FEE7000053
:1039B00000000000000001020304060708090000DF
:1039C000E039000800000020640100002801000820
:1039D000983A0008640100203C0F000084010008B0
:1039E0001375251B08AD041AB9041AE1041AFD0465
:1039F0001A4D041A81041704030904120132021635
:103A0000405B04625726020102030103181A0312E5
:103A10005212062814FF0901A1018502750895407C
:103A200009019182850109040C258182C05014206E
:103A300039031B0835041A3D04194B118210532415
:103A4000F41335231408A9221B08C508411AE10CF8
:103A50001A77041A8504C11A1D201A11041A2904A0
:103A60001A05041409022913010125C03209042A88
:103A700002A115092111011401221C160705810359
:103A8000022D0507050107291A09562C691A311359
:083A90000A0632022A40E4009C
:04000005080000ED02
:00000001FF
